{
    "_format": "hh-sol-artifact-1",
    "contractName": "MintingRouter",
    "sourceName": "contracts/MintingRouter.sol",
    "abi": [
        {
            "inputs": [
                {
                    "internalType": "contract INFT",
                    "name": "nftContract_",
                    "type": "address"
                },
                {
                    "internalType": "string",
                    "name": "tokenName",
                    "type": "string"
                },
                {
                    "internalType": "string",
                    "name": "version",
                    "type": "string"
                }
            ],
            "stateMutability": "nonpayable",
            "type": "constructor"
        },
        {
            "anonymous": false,
            "inputs": [
                {
                    "indexed": true,
                    "internalType": "address",
                    "name": "previousOwner",
                    "type": "address"
                },
                {
                    "indexed": true,
                    "internalType": "address",
                    "name": "newOwner",
                    "type": "address"
                }
            ],
            "name": "OwnershipTransferred",
            "type": "event"
        },
        {
            "inputs": [],
            "name": "DOMAIN_SEPARATOR",
            "outputs": [
                {
                    "internalType": "bytes32",
                    "name": "",
                    "type": "bytes32"
                }
            ],
            "stateMutability": "view",
            "type": "function"
        },
        {
            "inputs": [],
            "name": "MINTER_TYPEHASH",
            "outputs": [
                {
                    "internalType": "bytes32",
                    "name": "",
                    "type": "bytes32"
                }
            ],
            "stateMutability": "view",
            "type": "function"
        },
        {
            "inputs": [
                {
                    "internalType": "address",
                    "name": "minter",
                    "type": "address"
                }
            ],
            "name": "allowedTokenCount",
            "outputs": [
                {
                    "internalType": "uint256",
                    "name": "",
                    "type": "uint256"
                }
            ],
            "stateMutability": "view",
            "type": "function"
        },
        {
            "inputs": [
                {
                    "internalType": "uint256",
                    "name": "price",
                    "type": "uint256"
                },
                {
                    "internalType": "uint256",
                    "name": "totalAmount",
                    "type": "uint256"
                },
                {
                    "internalType": "uint8",
                    "name": "limitAmountPerWallet",
                    "type": "uint8"
                },
                {
                    "internalType": "uint256",
                    "name": "maxAmountPerMint",
                    "type": "uint256"
                }
            ],
            "name": "changeSaleRoundParams",
            "outputs": [],
            "stateMutability": "nonpayable",
            "type": "function"
        },
        {
            "inputs": [
                {
                    "internalType": "enum MintingRouter.SaleRoundType",
                    "name": "saleType",
                    "type": "uint8"
                },
                {
                    "internalType": "uint256",
                    "name": "price",
                    "type": "uint256"
                },
                {
                    "internalType": "uint256",
                    "name": "totalAmount",
                    "type": "uint256"
                },
                {
                    "internalType": "uint256",
                    "name": "limitAmountPerWallet",
                    "type": "uint256"
                },
                {
                    "internalType": "uint256",
                    "name": "maxAmountPerMint",
                    "type": "uint256"
                }
            ],
            "name": "createSaleRound",
            "outputs": [],
            "stateMutability": "nonpayable",
            "type": "function"
        },
        {
            "inputs": [],
            "name": "currentSaleIndex",
            "outputs": [
                {
                    "internalType": "uint256",
                    "name": "",
                    "type": "uint256"
                }
            ],
            "stateMutability": "view",
            "type": "function"
        },
        {
            "inputs": [],
            "name": "disableSaleRound",
            "outputs": [],
            "stateMutability": "nonpayable",
            "type": "function"
        },
        {
            "inputs": [],
            "name": "enableSaleRound",
            "outputs": [],
            "stateMutability": "nonpayable",
            "type": "function"
        },
        {
            "inputs": [
                {
                    "internalType": "uint256",
                    "name": "",
                    "type": "uint256"
                }
            ],
            "name": "mintedAmountPerRound",
            "outputs": [
                {
                    "internalType": "uint256",
                    "name": "",
                    "type": "uint256"
                }
            ],
            "stateMutability": "view",
            "type": "function"
        },
        {
            "inputs": [],
            "name": "owner",
            "outputs": [
                {
                    "internalType": "address",
                    "name": "",
                    "type": "address"
                }
            ],
            "stateMutability": "view",
            "type": "function"
        },
        {
            "inputs": [
                {
                    "internalType": "address",
                    "name": "recipient",
                    "type": "address"
                },
                {
                    "internalType": "uint256",
                    "name": "quantity",
                    "type": "uint256"
                }
            ],
            "name": "publicMint",
            "outputs": [],
            "stateMutability": "payable",
            "type": "function"
        },
        {
            "inputs": [],
            "name": "renounceOwnership",
            "outputs": [],
            "stateMutability": "nonpayable",
            "type": "function"
        },
        {
            "inputs": [],
            "name": "saleRound",
            "outputs": [
                {
                    "internalType": "enum MintingRouter.SaleRoundType",
                    "name": "saleType",
                    "type": "uint8"
                },
                {
                    "internalType": "uint256",
                    "name": "price",
                    "type": "uint256"
                },
                {
                    "internalType": "uint256",
                    "name": "totalAmount",
                    "type": "uint256"
                },
                {
                    "internalType": "uint256",
                    "name": "limitAmountPerWallet",
                    "type": "uint256"
                },
                {
                    "internalType": "uint256",
                    "name": "maxAmountPerMint",
                    "type": "uint256"
                },
                {
                    "internalType": "bool",
                    "name": "enabled",
                    "type": "bool"
                }
            ],
            "stateMutability": "view",
            "type": "function"
        },
        {
            "inputs": [
                {
                    "internalType": "address",
                    "name": "signer",
                    "type": "address"
                }
            ],
            "name": "setWhitelistSigningAddress",
            "outputs": [],
            "stateMutability": "nonpayable",
            "type": "function"
        },
        {
            "inputs": [],
            "name": "tokensLeft",
            "outputs": [
                {
                    "internalType": "uint256",
                    "name": "",
                    "type": "uint256"
                }
            ],
            "stateMutability": "view",
            "type": "function"
        },
        {
            "inputs": [],
            "name": "totalMintedAmountCurrentRound",
            "outputs": [
                {
                    "internalType": "uint256",
                    "name": "",
                    "type": "uint256"
                }
            ],
            "stateMutability": "view",
            "type": "function"
        },
        {
            "inputs": [
                {
                    "internalType": "address",
                    "name": "newOwner",
                    "type": "address"
                }
            ],
            "name": "transferOwnership",
            "outputs": [],
            "stateMutability": "nonpayable",
            "type": "function"
        },
        {
            "inputs": [
                {
                    "internalType": "address",
                    "name": "recipient",
                    "type": "address"
                },
                {
                    "internalType": "uint256",
                    "name": "quantity",
                    "type": "uint256"
                },
                {
                    "internalType": "bytes",
                    "name": "signature",
                    "type": "bytes"
                }
            ],
            "name": "whitelistMint",
            "outputs": [],
            "stateMutability": "payable",
            "type": "function"
        },
        {
            "inputs": [],
            "name": "withdraw",
            "outputs": [
                {
                    "internalType": "bool",
                    "name": "",
                    "type": "bool"
                }
            ],
            "stateMutability": "nonpayable",
            "type": "function"
        }
    ],
    "bytecode": "0x6080604052600080546001600160a01b03191690553480156200002157600080fd5b506040516200190438038062001904833981016040819052620000449162000213565b8151602080840191909120825183830120604080517f8b73c3c69bb8fe3d512ecc4cf759cc79239f7b179b0ffacaa9a75d522b39400f818601528082019390935260608301919091524660808301523060a0808401919091528151808403909101815260c0909201905280519101206001908155600255620000c633620000f4565b5050600480546001600160a01b0319166001600160a01b0392909216919091179055600019600b556200029d565b600380546001600160a01b038381166001600160a01b0319831681179093556040519116919082907f8be0079c531659141344cd1fd0a4f28419497f9722a3daafe3b4186f6b6457e090600090a35050565b634e487b7160e01b600052604160045260246000fd5b600082601f8301126200016e57600080fd5b81516001600160401b03808211156200018b576200018b62000146565b604051601f8301601f19908116603f01168101908282118183101715620001b657620001b662000146565b81604052838152602092508683858801011115620001d357600080fd5b600091505b83821015620001f75785820183015181830184015290820190620001d8565b83821115620002095760008385830101525b9695505050505050565b6000806000606084860312156200022957600080fd5b83516001600160a01b03811681146200024157600080fd5b60208501519093506001600160401b03808211156200025f57600080fd5b6200026d878388016200015c565b935060408601519150808211156200028457600080fd5b5062000293868287016200015c565b9150509250925092565b61165780620002ad6000396000f3fe6080604052600436106101145760003560e01c80638da5cb5b116100a0578063ce6df2b911610064578063ce6df2b9146102b1578063e4e9275a146102c4578063eb9bbe6614610307578063f2fde38b14610327578063fa4d280c1461034757600080fd5b80638da5cb5b14610229578063b31f8f9314610251578063bd14c3d014610266578063c1d691681461027c578063cd7708331461029157600080fd5b80633ccfd60b116100e75780633ccfd60b146101a65780634d4a6be8146101cb5780635ed222e3146101eb578063715018a6146101fe5780637ffb8df71461021357600080fd5b80631263a4601461011957806327c51a061461013057806333832942146101705780633644e51514610190575b600080fd5b34801561012557600080fd5b5061012e61037b565b005b34801561013c57600080fd5b5061015d61014b36600461136e565b600d6020526000908152604090205481565b6040519081526020015b60405180910390f35b34801561017c57600080fd5b5061012e61018b366004611387565b610410565b34801561019c57600080fd5b5061015d60015481565b3480156101b257600080fd5b506101bb6105cc565b6040519015158152602001610167565b3480156101d757600080fd5b5061015d6101e63660046113eb565b610631565b61012e6101f936600461140d565b610739565b34801561020a57600080fd5b5061012e6109a6565b34801561021f57600080fd5b5061015d600c5481565b34801561023557600080fd5b506003546040516001600160a01b039091168152602001610167565b34801561025d57600080fd5b5061015d6109dc565b34801561027257600080fd5b5061015d600b5481565b34801561028857600080fd5b5061012e610a20565b34801561029d57600080fd5b5061012e6102ac3660046113eb565b610aad565b61012e6102bf366004611494565b610af8565b3480156102d057600080fd5b50600554600654600754600854600954600a546102f59560ff90811695949392911686565b604051610167969594939291906114d4565b34801561031357600080fd5b5061012e610322366004611521565b610bbc565b34801561033357600080fd5b5061012e6103423660046113eb565b610bfd565b34801561035357600080fd5b5061015d7f68e83002b91b0fd96d4df3566b5122221117e3ec6c2468fda594f6491f89b1c981565b6003546001600160a01b031633146103ae5760405162461bcd60e51b81526004016103a590611566565b60405180910390fd5b600a5460ff16156104015760405162461bcd60e51b815260206004820152601e60248201527f53616c6520726f756e642077617320616c726561647920656e61626c6564000060448201526064016103a5565b600a805460ff19166001179055565b6003546001600160a01b0316331461043a5760405162461bcd60e51b81526004016103a590611566565b6000600460009054906101000a90046001600160a01b03166001600160a01b031663357b794e6040518163ffffffff1660e01b8152600401602060405180830381865afa15801561048f573d6000803e3d6000fd5b505050506040513d601f19601f820116820180604052508101906104b3919061159b565b90506001811515146105075760405162461bcd60e51b815260206004820152601960248201527f4d757374206d696e7420726573657276656420746f6b656e730000000000000060448201526064016103a5565b600a5460ff161561055a5760405162461bcd60e51b815260206004820152601e60248201527f4d7573742064697361626c65207468652063757272656e7420726f756e64000060448201526064016103a5565b600019600b540361056f576000600b55610588565b6001600b600082825461058291906115d3565b90915550505b60068590556007849055600883905560098290556005805487919060ff1916600183818111156105ba576105ba6114be565b0217905550506000600c555050505050565b6003546000906001600160a01b031633146105f95760405162461bcd60e51b81526004016103a590611566565b6040514790339082156108fc029083906000818181858888f19350505050158015610628573d6000803e3d6000fd5b50600191505090565b600b546000908152600e602090815260408083206001600160a01b038516845290915281205460085482911061066857600061069b565b600b546000908152600e602090815260408083206001600160a01b038716845290915290205460085461069b91906115eb565b600b546000908152600d60205260408120546007549293509091116106c15760006106e0565b600b546000908152600d60205260409020546007546106e091906115eb565b6007546008549192506000916106f691906115d3565b0361070657506000199392505050565b600854610714579392505050565b600754610722575092915050565b80821061072f5780610731565b815b949350505050565b600054829082906001600160a01b03166107b05760405162461bcd60e51b815260206004820152603260248201527f57686974656c697374206e6f7420656e61626c65643b20706c656173652073656044820152713a103a343290383934bb30ba329035b2bc9760711b60648201526084016103a5565b600154604080517f68e83002b91b0fd96d4df3566b5122221117e3ec6c2468fda594f6491f89b1c960208201523391810191909152600091906060016040516020818303038152906040528051906020012060405160200161082992919061190160f01b81526002810192909252602282015260420190565b604051602081830303815290604052805190602001209050600061088584848080601f0160208091040260200160405190810160405280939291908181526020018383808284376000920191909152508693925050610c959050565b6000549091506001600160a01b038083169116146108d95760405162461bcd60e51b8152602060048201526011602482015270496e76616c6964207369676e617475726560781b60448201526064016103a5565b600280540361092a5760405162461bcd60e51b815260206004820152601f60248201527f5265656e7472616e637947756172643a207265656e7472616e742063616c6c0060448201526064016103a5565b60028055600060055460ff166001811115610947576109476114be565b1461098c5760405162461bcd60e51b8152602060048201526015602482015274139bdd0818481dda1a5d195b1a5cdd081c9bdd5b99605a1b60448201526064016103a5565b610997348989610cb9565b50506001600255505050505050565b6003546001600160a01b031633146109d05760405162461bcd60e51b81526004016103a590611566565b6109da6000610fd2565b565b600b546000908152600d6020526040812054600754116109fc5750600090565b600b546000908152600d6020526040902054600754610a1b91906115eb565b905090565b6003546001600160a01b03163314610a4a5760405162461bcd60e51b81526004016103a590611566565b600a5460ff161515600114610aa15760405162461bcd60e51b815260206004820152601f60248201527f53616c6520726f756e642077617320616c72656164792064697361626c65640060448201526064016103a5565b600a805460ff19169055565b6003546001600160a01b03163314610ad75760405162461bcd60e51b81526004016103a590611566565b600080546001600160a01b0319166001600160a01b03831617905550565b50565b6002805403610b495760405162461bcd60e51b815260206004820152601f60248201527f5265656e7472616e637947756172643a207265656e7472616e742063616c6c0060448201526064016103a5565b60028055600160055460ff166001811115610b6657610b666114be565b14610ba85760405162461bcd60e51b8152602060048201526012602482015271139bdd0818481c1d589b1a58c81c9bdd5b9960721b60448201526064016103a5565b610bb3348383610cb9565b50506001600255565b6003546001600160a01b03163314610be65760405162461bcd60e51b81526004016103a590611566565b60069390935560079190915560ff16600855600955565b6003546001600160a01b03163314610c275760405162461bcd60e51b81526004016103a590611566565b6001600160a01b038116610c8c5760405162461bcd60e51b815260206004820152602660248201527f4f776e61626c653a206e6577206f776e657220697320746865207a65726f206160448201526564647265737360d01b60648201526084016103a5565b610af581610fd2565b6000806000610ca48585611024565b91509150610cb181611092565b509392505050565b600a5460ff161515600114610d095760405162461bcd60e51b815260206004820152601660248201527514d85b19481c9bdd5b99081a5cc8191a5cd8589b195960521b60448201526064016103a5565b60008111610d505760405162461bcd60e51b815260206004820152601460248201527305175616e74697479206d757374206265203e20360641b60448201526064016103a5565b60095415610daa57600954811115610daa5760405162461bcd60e51b815260206004820152601860248201527f4d6178206d696e7420616d6f756e74206578636565646564000000000000000060448201526064016103a5565b60075415610e1157600754600c54610dc39083906115d3565b1115610e115760405162461bcd60e51b815260206004820152601760248201527f4d61782073616c6520616d6f756e74207265616368656400000000000000000060448201526064016103a5565b60085415610e9c57600b546000908152600e602090815260408083206001600160a01b0386168452909152902054600854610e4c83836115d3565b1115610e9a5760405162461bcd60e51b815260206004820152601e60248201527f4d6178206d696e7465642070657220616464726573732072656163686564000060448201526064016103a5565b505b600654610eaa908290611602565b831015610eee5760405162461bcd60e51b8152602060048201526012602482015271496e73756666696369656e742066756e647360701b60448201526064016103a5565b600480546040516340c10f1960e01b81526001600160a01b0385811693820193909352602481018490529116906340c10f1990604401600060405180830381600087803b158015610f3e57600080fd5b505af1158015610f52573d6000803e3d6000fd5b5050505080600c6000828254610f6891906115d3565b9091555050600b546000908152600e602090815260408083206001600160a01b038616845290915281208054839290610fa29084906115d3565b9091555050600b546000908152600d602052604081208054839290610fc89084906115d3565b9091555050505050565b600380546001600160a01b038381166001600160a01b0319831681179093556040519116919082907f8be0079c531659141344cd1fd0a4f28419497f9722a3daafe3b4186f6b6457e090600090a35050565b600080825160410361105a5760208301516040840151606085015160001a61104e87828585611248565b9450945050505061108b565b82516040036110835760208301516040840151611078868383611335565b93509350505061108b565b506000905060025b9250929050565b60008160048111156110a6576110a66114be565b036110ae5750565b60018160048111156110c2576110c26114be565b0361110f5760405162461bcd60e51b815260206004820152601860248201527f45434453413a20696e76616c6964207369676e6174757265000000000000000060448201526064016103a5565b6002816004811115611123576111236114be565b036111705760405162461bcd60e51b815260206004820152601f60248201527f45434453413a20696e76616c6964207369676e6174757265206c656e6774680060448201526064016103a5565b6003816004811115611184576111846114be565b036111dc5760405162461bcd60e51b815260206004820152602260248201527f45434453413a20696e76616c6964207369676e6174757265202773272076616c604482015261756560f01b60648201526084016103a5565b60048160048111156111f0576111f06114be565b03610af55760405162461bcd60e51b815260206004820152602260248201527f45434453413a20696e76616c6964207369676e6174757265202776272076616c604482015261756560f01b60648201526084016103a5565b6000807f7fffffffffffffffffffffffffffffff5d576e7357a4501ddfe92f46681b20a083111561127f575060009050600361132c565b8460ff16601b1415801561129757508460ff16601c14155b156112a8575060009050600461132c565b6040805160008082526020820180845289905260ff881692820192909252606081018690526080810185905260019060a0016020604051602081039080840390855afa1580156112fc573d6000803e3d6000fd5b5050604051601f1901519150506001600160a01b0381166113255760006001925092505061132c565b9150600090505b94509492505050565b6000806001600160ff1b0383168161135260ff86901c601b6115d3565b905061136087828885611248565b935093505050935093915050565b60006020828403121561138057600080fd5b5035919050565b600080600080600060a0868803121561139f57600080fd5b8535600281106113ae57600080fd5b97602087013597506040870135966060810135965060800135945092505050565b80356001600160a01b03811681146113e657600080fd5b919050565b6000602082840312156113fd57600080fd5b611406826113cf565b9392505050565b6000806000806060858703121561142357600080fd5b61142c856113cf565b935060208501359250604085013567ffffffffffffffff8082111561145057600080fd5b818701915087601f83011261146457600080fd5b81358181111561147357600080fd5b88602082850101111561148557600080fd5b95989497505060200194505050565b600080604083850312156114a757600080fd5b6114b0836113cf565b946020939093013593505050565b634e487b7160e01b600052602160045260246000fd5b60c08101600288106114f657634e487b7160e01b600052602160045260246000fd5b9681526020810195909552604085019390935260608401919091526080830152151560a09091015290565b6000806000806080858703121561153757600080fd5b8435935060208501359250604085013560ff8116811461155657600080fd5b9396929550929360600135925050565b6020808252818101527f4f776e61626c653a2063616c6c6572206973206e6f7420746865206f776e6572604082015260600190565b6000602082840312156115ad57600080fd5b8151801515811461140657600080fd5b634e487b7160e01b600052601160045260246000fd5b600082198211156115e6576115e66115bd565b500190565b6000828210156115fd576115fd6115bd565b500390565b600081600019048311821515161561161c5761161c6115bd565b50029056fea26469706673582212208cba6b5c4db60985eb77ed4013241c35ab9aa53e5fe1fd8844fcf041a4cfb69064736f6c634300080d0033",
    "linkReferences": {},
    "deployedLinkReferences": {}
}