{
    "_format": "hh-sol-artifact-1",
    "contractName": "NFT",
    "sourceName": "contracts/NFT.sol",
    "abi": [
        {
            "inputs": [
                {
                    "internalType": "string",
                    "name": "tokenName",
                    "type": "string"
                },
                {
                    "internalType": "string",
                    "name": "tokenSymbol",
                    "type": "string"
                },
                {
                    "internalType": "string",
                    "name": "unrevealedUri",
                    "type": "string"
                },
                {
                    "internalType": "uint256",
                    "name": "maxSupply",
                    "type": "uint256"
                },
                {
                    "internalType": "uint256",
                    "name": "maxReservedSupply",
                    "type": "uint256"
                }
            ],
            "stateMutability": "nonpayable",
            "type": "constructor"
        },
        {
            "inputs": [],
            "name": "ApprovalCallerNotOwnerNorApproved",
            "type": "error"
        },
        {
            "inputs": [],
            "name": "ApprovalQueryForNonexistentToken",
            "type": "error"
        },
        {
            "inputs": [],
            "name": "ApprovalToCurrentOwner",
            "type": "error"
        },
        {
            "inputs": [],
            "name": "ApproveToCaller",
            "type": "error"
        },
        {
            "inputs": [],
            "name": "BalanceQueryForZeroAddress",
            "type": "error"
        },
        {
            "inputs": [],
            "name": "MintToZeroAddress",
            "type": "error"
        },
        {
            "inputs": [],
            "name": "MintZeroQuantity",
            "type": "error"
        },
        {
            "inputs": [],
            "name": "OwnerIndexOutOfBounds",
            "type": "error"
        },
        {
            "inputs": [],
            "name": "OwnerQueryForNonexistentToken",
            "type": "error"
        },
        {
            "inputs": [],
            "name": "TokenIndexOutOfBounds",
            "type": "error"
        },
        {
            "inputs": [],
            "name": "TransferCallerNotOwnerNorApproved",
            "type": "error"
        },
        {
            "inputs": [],
            "name": "TransferFromIncorrectOwner",
            "type": "error"
        },
        {
            "inputs": [],
            "name": "TransferToNonERC721ReceiverImplementer",
            "type": "error"
        },
        {
            "inputs": [],
            "name": "TransferToZeroAddress",
            "type": "error"
        },
        {
            "inputs": [],
            "name": "URIQueryForNonexistentToken",
            "type": "error"
        },
        {
            "anonymous": false,
            "inputs": [
                {
                    "indexed": true,
                    "internalType": "address",
                    "name": "owner",
                    "type": "address"
                },
                {
                    "indexed": true,
                    "internalType": "address",
                    "name": "approved",
                    "type": "address"
                },
                {
                    "indexed": true,
                    "internalType": "uint256",
                    "name": "tokenId",
                    "type": "uint256"
                }
            ],
            "name": "Approval",
            "type": "event"
        },
        {
            "anonymous": false,
            "inputs": [
                {
                    "indexed": true,
                    "internalType": "address",
                    "name": "owner",
                    "type": "address"
                },
                {
                    "indexed": true,
                    "internalType": "address",
                    "name": "operator",
                    "type": "address"
                },
                {
                    "indexed": false,
                    "internalType": "bool",
                    "name": "approved",
                    "type": "bool"
                }
            ],
            "name": "ApprovalForAll",
            "type": "event"
        },
        {
            "anonymous": false,
            "inputs": [
                {
                    "indexed": true,
                    "internalType": "address",
                    "name": "previousOwner",
                    "type": "address"
                },
                {
                    "indexed": true,
                    "internalType": "address",
                    "name": "newOwner",
                    "type": "address"
                }
            ],
            "name": "OwnershipTransferred",
            "type": "event"
        },
        {
            "anonymous": false,
            "inputs": [
                {
                    "indexed": true,
                    "internalType": "bytes32",
                    "name": "role",
                    "type": "bytes32"
                },
                {
                    "indexed": true,
                    "internalType": "bytes32",
                    "name": "previousAdminRole",
                    "type": "bytes32"
                },
                {
                    "indexed": true,
                    "internalType": "bytes32",
                    "name": "newAdminRole",
                    "type": "bytes32"
                }
            ],
            "name": "RoleAdminChanged",
            "type": "event"
        },
        {
            "anonymous": false,
            "inputs": [
                {
                    "indexed": true,
                    "internalType": "bytes32",
                    "name": "role",
                    "type": "bytes32"
                },
                {
                    "indexed": true,
                    "internalType": "address",
                    "name": "account",
                    "type": "address"
                },
                {
                    "indexed": true,
                    "internalType": "address",
                    "name": "sender",
                    "type": "address"
                }
            ],
            "name": "RoleGranted",
            "type": "event"
        },
        {
            "anonymous": false,
            "inputs": [
                {
                    "indexed": true,
                    "internalType": "bytes32",
                    "name": "role",
                    "type": "bytes32"
                },
                {
                    "indexed": true,
                    "internalType": "address",
                    "name": "account",
                    "type": "address"
                },
                {
                    "indexed": true,
                    "internalType": "address",
                    "name": "sender",
                    "type": "address"
                }
            ],
            "name": "RoleRevoked",
            "type": "event"
        },
        {
            "anonymous": false,
            "inputs": [
                {
                    "indexed": true,
                    "internalType": "address",
                    "name": "from",
                    "type": "address"
                },
                {
                    "indexed": true,
                    "internalType": "address",
                    "name": "to",
                    "type": "address"
                },
                {
                    "indexed": true,
                    "internalType": "uint256",
                    "name": "tokenId",
                    "type": "uint256"
                }
            ],
            "name": "Transfer",
            "type": "event"
        },
        {
            "inputs": [],
            "name": "DEFAULT_ADMIN_ROLE",
            "outputs": [
                {
                    "internalType": "bytes32",
                    "name": "",
                    "type": "bytes32"
                }
            ],
            "stateMutability": "view",
            "type": "function"
        },
        {
            "inputs": [],
            "name": "MAX_RESERVED_SUPPLY",
            "outputs": [
                {
                    "internalType": "uint256",
                    "name": "",
                    "type": "uint256"
                }
            ],
            "stateMutability": "view",
            "type": "function"
        },
        {
            "inputs": [],
            "name": "MAX_SUPPLY",
            "outputs": [
                {
                    "internalType": "uint256",
                    "name": "",
                    "type": "uint256"
                }
            ],
            "stateMutability": "view",
            "type": "function"
        },
        {
            "inputs": [],
            "name": "MINTER_ROLE",
            "outputs": [
                {
                    "internalType": "bytes32",
                    "name": "",
                    "type": "bytes32"
                }
            ],
            "stateMutability": "view",
            "type": "function"
        },
        {
            "inputs": [
                {
                    "internalType": "address",
                    "name": "to",
                    "type": "address"
                },
                {
                    "internalType": "uint256",
                    "name": "tokenId",
                    "type": "uint256"
                }
            ],
            "name": "approve",
            "outputs": [],
            "stateMutability": "nonpayable",
            "type": "function"
        },
        {
            "inputs": [
                {
                    "internalType": "address",
                    "name": "owner",
                    "type": "address"
                }
            ],
            "name": "balanceOf",
            "outputs": [
                {
                    "internalType": "uint256",
                    "name": "",
                    "type": "uint256"
                }
            ],
            "stateMutability": "view",
            "type": "function"
        },
        {
            "inputs": [
                {
                    "internalType": "uint256[]",
                    "name": "tokenIds",
                    "type": "uint256[]"
                }
            ],
            "name": "burnTokens",
            "outputs": [],
            "stateMutability": "nonpayable",
            "type": "function"
        },
        {
            "inputs": [
                {
                    "internalType": "uint256",
                    "name": "tokenId",
                    "type": "uint256"
                }
            ],
            "name": "getApproved",
            "outputs": [
                {
                    "internalType": "address",
                    "name": "",
                    "type": "address"
                }
            ],
            "stateMutability": "view",
            "type": "function"
        },
        {
            "inputs": [],
            "name": "getBaseUri",
            "outputs": [
                {
                    "internalType": "string",
                    "name": "",
                    "type": "string"
                }
            ],
            "stateMutability": "view",
            "type": "function"
        },
        {
            "inputs": [
                {
                    "internalType": "bytes32",
                    "name": "role",
                    "type": "bytes32"
                }
            ],
            "name": "getRoleAdmin",
            "outputs": [
                {
                    "internalType": "bytes32",
                    "name": "",
                    "type": "bytes32"
                }
            ],
            "stateMutability": "view",
            "type": "function"
        },
        {
            "inputs": [
                {
                    "internalType": "bytes32",
                    "name": "role",
                    "type": "bytes32"
                },
                {
                    "internalType": "address",
                    "name": "account",
                    "type": "address"
                }
            ],
            "name": "grantRole",
            "outputs": [],
            "stateMutability": "nonpayable",
            "type": "function"
        },
        {
            "inputs": [
                {
                    "internalType": "bytes32",
                    "name": "role",
                    "type": "bytes32"
                },
                {
                    "internalType": "address",
                    "name": "account",
                    "type": "address"
                }
            ],
            "name": "hasRole",
            "outputs": [
                {
                    "internalType": "bool",
                    "name": "",
                    "type": "bool"
                }
            ],
            "stateMutability": "view",
            "type": "function"
        },
        {
            "inputs": [
                {
                    "internalType": "address",
                    "name": "owner",
                    "type": "address"
                },
                {
                    "internalType": "address",
                    "name": "operator",
                    "type": "address"
                }
            ],
            "name": "isApprovedForAll",
            "outputs": [
                {
                    "internalType": "bool",
                    "name": "",
                    "type": "bool"
                }
            ],
            "stateMutability": "view",
            "type": "function"
        },
        {
            "inputs": [
                {
                    "internalType": "address",
                    "name": "recipient",
                    "type": "address"
                },
                {
                    "internalType": "uint256",
                    "name": "quantity",
                    "type": "uint256"
                }
            ],
            "name": "mint",
            "outputs": [],
            "stateMutability": "nonpayable",
            "type": "function"
        },
        {
            "inputs": [],
            "name": "name",
            "outputs": [
                {
                    "internalType": "string",
                    "name": "",
                    "type": "string"
                }
            ],
            "stateMutability": "view",
            "type": "function"
        },
        {
            "inputs": [],
            "name": "owner",
            "outputs": [
                {
                    "internalType": "address",
                    "name": "",
                    "type": "address"
                }
            ],
            "stateMutability": "view",
            "type": "function"
        },
        {
            "inputs": [
                {
                    "internalType": "uint256",
                    "name": "tokenId",
                    "type": "uint256"
                }
            ],
            "name": "ownerOf",
            "outputs": [
                {
                    "internalType": "address",
                    "name": "",
                    "type": "address"
                }
            ],
            "stateMutability": "view",
            "type": "function"
        },
        {
            "inputs": [
                {
                    "internalType": "uint256",
                    "name": "quantity",
                    "type": "uint256"
                }
            ],
            "name": "premint",
            "outputs": [],
            "stateMutability": "nonpayable",
            "type": "function"
        },
        {
            "inputs": [],
            "name": "preminted",
            "outputs": [
                {
                    "internalType": "bool",
                    "name": "",
                    "type": "bool"
                }
            ],
            "stateMutability": "view",
            "type": "function"
        },
        {
            "inputs": [],
            "name": "renounceOwnership",
            "outputs": [],
            "stateMutability": "nonpayable",
            "type": "function"
        },
        {
            "inputs": [
                {
                    "internalType": "bytes32",
                    "name": "role",
                    "type": "bytes32"
                },
                {
                    "internalType": "address",
                    "name": "account",
                    "type": "address"
                }
            ],
            "name": "renounceRole",
            "outputs": [],
            "stateMutability": "nonpayable",
            "type": "function"
        },
        {
            "inputs": [],
            "name": "reveal",
            "outputs": [],
            "stateMutability": "nonpayable",
            "type": "function"
        },
        {
            "inputs": [],
            "name": "revealed",
            "outputs": [
                {
                    "internalType": "bool",
                    "name": "",
                    "type": "bool"
                }
            ],
            "stateMutability": "view",
            "type": "function"
        },
        {
            "inputs": [
                {
                    "internalType": "bytes32",
                    "name": "role",
                    "type": "bytes32"
                },
                {
                    "internalType": "address",
                    "name": "account",
                    "type": "address"
                }
            ],
            "name": "revokeRole",
            "outputs": [],
            "stateMutability": "nonpayable",
            "type": "function"
        },
        {
            "inputs": [
                {
                    "internalType": "address",
                    "name": "from",
                    "type": "address"
                },
                {
                    "internalType": "address",
                    "name": "to",
                    "type": "address"
                },
                {
                    "internalType": "uint256",
                    "name": "tokenId",
                    "type": "uint256"
                }
            ],
            "name": "safeTransferFrom",
            "outputs": [],
            "stateMutability": "nonpayable",
            "type": "function"
        },
        {
            "inputs": [
                {
                    "internalType": "address",
                    "name": "from",
                    "type": "address"
                },
                {
                    "internalType": "address",
                    "name": "to",
                    "type": "address"
                },
                {
                    "internalType": "uint256",
                    "name": "tokenId",
                    "type": "uint256"
                },
                {
                    "internalType": "bytes",
                    "name": "_data",
                    "type": "bytes"
                }
            ],
            "name": "safeTransferFrom",
            "outputs": [],
            "stateMutability": "nonpayable",
            "type": "function"
        },
        {
            "inputs": [
                {
                    "internalType": "address",
                    "name": "operator",
                    "type": "address"
                },
                {
                    "internalType": "bool",
                    "name": "approved",
                    "type": "bool"
                }
            ],
            "name": "setApprovalForAll",
            "outputs": [],
            "stateMutability": "nonpayable",
            "type": "function"
        },
        {
            "inputs": [
                {
                    "internalType": "string",
                    "name": "uri",
                    "type": "string"
                }
            ],
            "name": "setBaseUri",
            "outputs": [],
            "stateMutability": "nonpayable",
            "type": "function"
        },
        {
            "inputs": [
                {
                    "internalType": "uint256",
                    "name": "quantity",
                    "type": "uint256"
                }
            ],
            "name": "setMaxSupply",
            "outputs": [],
            "stateMutability": "nonpayable",
            "type": "function"
        },
        {
            "inputs": [
                {
                    "internalType": "address",
                    "name": "mintingRouter",
                    "type": "address"
                }
            ],
            "name": "setMinter",
            "outputs": [],
            "stateMutability": "nonpayable",
            "type": "function"
        },
        {
            "inputs": [
                {
                    "internalType": "string",
                    "name": "uri",
                    "type": "string"
                }
            ],
            "name": "setUnrevealedUri",
            "outputs": [],
            "stateMutability": "nonpayable",
            "type": "function"
        },
        {
            "inputs": [
                {
                    "internalType": "bytes4",
                    "name": "interfaceId",
                    "type": "bytes4"
                }
            ],
            "name": "supportsInterface",
            "outputs": [
                {
                    "internalType": "bool",
                    "name": "",
                    "type": "bool"
                }
            ],
            "stateMutability": "view",
            "type": "function"
        },
        {
            "inputs": [],
            "name": "symbol",
            "outputs": [
                {
                    "internalType": "string",
                    "name": "",
                    "type": "string"
                }
            ],
            "stateMutability": "view",
            "type": "function"
        },
        {
            "inputs": [
                {
                    "internalType": "uint256",
                    "name": "index",
                    "type": "uint256"
                }
            ],
            "name": "tokenByIndex",
            "outputs": [
                {
                    "internalType": "uint256",
                    "name": "",
                    "type": "uint256"
                }
            ],
            "stateMutability": "view",
            "type": "function"
        },
        {
            "inputs": [
                {
                    "internalType": "address",
                    "name": "owner",
                    "type": "address"
                },
                {
                    "internalType": "uint256",
                    "name": "index",
                    "type": "uint256"
                }
            ],
            "name": "tokenOfOwnerByIndex",
            "outputs": [
                {
                    "internalType": "uint256",
                    "name": "",
                    "type": "uint256"
                }
            ],
            "stateMutability": "view",
            "type": "function"
        },
        {
            "inputs": [
                {
                    "internalType": "uint256",
                    "name": "tokenId",
                    "type": "uint256"
                }
            ],
            "name": "tokenURI",
            "outputs": [
                {
                    "internalType": "string",
                    "name": "",
                    "type": "string"
                }
            ],
            "stateMutability": "view",
            "type": "function"
        },
        {
            "inputs": [],
            "name": "totalSupply",
            "outputs": [
                {
                    "internalType": "uint256",
                    "name": "",
                    "type": "uint256"
                }
            ],
            "stateMutability": "view",
            "type": "function"
        },
        {
            "inputs": [
                {
                    "internalType": "address",
                    "name": "from",
                    "type": "address"
                },
                {
                    "internalType": "address",
                    "name": "to",
                    "type": "address"
                },
                {
                    "internalType": "uint256",
                    "name": "tokenId",
                    "type": "uint256"
                }
            ],
            "name": "transferFrom",
            "outputs": [],
            "stateMutability": "nonpayable",
            "type": "function"
        },
        {
            "inputs": [
                {
                    "internalType": "address",
                    "name": "newOwner",
                    "type": "address"
                }
            ],
            "name": "transferOwnership",
            "outputs": [],
            "stateMutability": "nonpayable",
            "type": "function"
        },
        {
            "inputs": [],
            "name": "unreveal",
            "outputs": [],
            "stateMutability": "nonpayable",
            "type": "function"
        }
    ],
    "bytecode": "0x60c0604052600b60808190526a697066733a2f2f6e6f6e6560a81b60a09081526200002e91600a919062000222565b50600c805460ff19908116909155600f805490911690553480156200005257600080fd5b506040516200294b3803806200294b833981016040819052620000759162000395565b82858581600290805190602001906200009092919062000222565b508051620000a690600390602084019062000222565b505050620000c3620000bd6200012760201b60201c565b6200012b565b8051620000d890600b90602084019062000222565b50620000e890506000336200017d565b620001147f9f2df0fed2c77648de5860a4cc508cd0818c85b8b8a1ab4ceeef8d981c8956a6336200017d565b600d91909155600e555062000475915050565b3390565b600980546001600160a01b038381166001600160a01b0319831681179093556040519116919082907f8be0079c531659141344cd1fd0a4f28419497f9722a3daafe3b4186f6b6457e090600090a35050565b60008281526008602090815260408083206001600160a01b038516845290915290205460ff166200021e5760008281526008602090815260408083206001600160a01b03851684529091529020805460ff19166001179055620001dd3390565b6001600160a01b0316816001600160a01b0316837f2f8788117e7eff1d82e926ec794901d17c78024a50270940304540a733656f0d60405160405180910390a45b5050565b828054620002309062000439565b90600052602060002090601f0160209004810192826200025457600085556200029f565b82601f106200026f57805160ff19168380011785556200029f565b828001600101855582156200029f579182015b828111156200029f57825182559160200191906001019062000282565b50620002ad929150620002b1565b5090565b5b80821115620002ad5760008155600101620002b2565b634e487b7160e01b600052604160045260246000fd5b600082601f830112620002f057600080fd5b81516001600160401b03808211156200030d576200030d620002c8565b604051601f8301601f19908116603f01168101908282118183101715620003385762000338620002c8565b816040528381526020925086838588010111156200035557600080fd5b600091505b838210156200037957858201830151818301840152908201906200035a565b838211156200038b5760008385830101525b9695505050505050565b600080600080600060a08688031215620003ae57600080fd5b85516001600160401b0380821115620003c657600080fd5b620003d489838a01620002de565b96506020880151915080821115620003eb57600080fd5b620003f989838a01620002de565b955060408801519150808211156200041057600080fd5b506200041f88828901620002de565b606088015160809098015196999598509695949350505050565b600181811c908216806200044e57607f821691505b6020821081036200046f57634e487b7160e01b600052602260045260246000fd5b50919050565b6124c680620004856000396000f3fe608060405234801561001057600080fd5b50600436106102485760003560e01c80636f8b44b01161013b578063a22cb465116100b8578063d547741f1161007c578063d547741f146104e4578063dfe0ce18146104f7578063e985e9c514610500578063f2fde38b1461053c578063fca3b5aa1461054f57600080fd5b8063a22cb4651461047c578063a475b5dd1461048f578063b88d4fde14610497578063c87b56dd146104aa578063d5391393146104bd57600080fd5b806391d14854116100ff57806391d148541461043357806395d89b41146104465780639d5aef301461044e578063a0bcfc7f14610461578063a217fddf1461047457600080fd5b80636f8b44b0146103e157806370a08231146103f4578063715018a6146104075780638da5cb5b1461040f57806390fb5fb91461042057600080fd5b80632f745c59116101c957806342842e0e1161018d57806342842e0e146103885780634f6ccce71461039b57806351830227146103ae5780636352211e146103bb57806367a53173146103ce57600080fd5b80632f745c591461033957806332cb6b0c1461034c578063357b794e1461035557806336568abe1461036257806340c10f191461037557600080fd5b8063158756b911610210578063158756b9146102d257806318160ddd146102da57806323b872dd146102f0578063248a9ca3146103035780632f2ff15d1461032657600080fd5b806301ffc9a71461024d57806306fdde0314610275578063081812fc1461028a578063095ea7b3146102b55780630cac36b2146102ca575b600080fd5b61026061025b366004611e4b565b610562565b60405190151581526020015b60405180910390f35b61027d610573565b60405161026c9190611ec0565b61029d610298366004611ed3565b610605565b6040516001600160a01b03909116815260200161026c565b6102c86102c3366004611f08565b610649565b005b61027d6106d6565b6102c86106e5565b600154600054035b60405190815260200161026c565b6102c86102fe366004611f32565b6106fe565b6102e2610311366004611ed3565b60009081526008602052604090206001015490565b6102c8610334366004611f6e565b610709565b6102e2610347366004611f08565b61072f565b6102e2600d5481565b600f546102609060ff1681565b6102c8610370366004611f6e565b610820565b6102c8610383366004611f08565b6108a3565b6102c8610396366004611f32565b61098d565b6102e26103a9366004611ed3565b6109a8565b600c546102609060ff1681565b61029d6103c9366004611ed3565b610a48565b6102c86103dc366004611f9a565b610a5a565b6102c86103ef366004611ed3565b610b26565b6102e261040236600461200e565b610b88565b6102c8610bd6565b6009546001600160a01b031661029d565b6102c861042e3660046120b4565b610c3c565b610260610441366004611f6e565b610c5b565b61027d610c86565b6102c861045c366004611ed3565b610c95565b6102c861046f3660046120b4565b610d86565b6102e2600081565b6102c861048a3660046120fc565b610db7565b6102c8610e4c565b6102c86104a5366004612138565b610e68565b61027d6104b8366004611ed3565b610ea2565b6102e27f9f2df0fed2c77648de5860a4cc508cd0818c85b8b8a1ab4ceeef8d981c8956a681565b6102c86104f2366004611f6e565b610ed3565b6102e2600e5481565b61026061050e3660046121b3565b6001600160a01b03918216600090815260076020908152604080832093909416825291909152205460ff1690565b6102c861054a36600461200e565b610ef9565b6102c861055d36600461200e565b610fc4565b600061056d82610ffa565b92915050565b606060028054610582906121dd565b80601f01602080910402602001604051908101604052809291908181526020018280546105ae906121dd565b80156105fb5780601f106105d0576101008083540402835291602001916105fb565b820191906000526020600020905b8154815290600101906020018083116105de57829003601f168201915b5050505050905090565b60006106108261101f565b61062d576040516333d1c03960e21b815260040160405180910390fd5b506000908152600660205260409020546001600160a01b031690565b600061065482610a48565b9050806001600160a01b0316836001600160a01b0316036106885760405163250fdee360e21b815260040160405180910390fd5b336001600160a01b038216148015906106a857506106a6813361050e565b155b156106c6576040516367d9dca160e11b815260040160405180910390fd5b6106d183838361104a565b505050565b6060600a8054610582906121dd565b60006106f181336110a6565b50600c805460ff19169055565b6106d183838361110a565b60008281526008602052604090206001015461072581336110a6565b6106d1838361131e565b600061073a83610b88565b8210610759576040516306ed618760e11b815260040160405180910390fd5b600080549080805b8381101561081a57600081815260046020908152604091829020825160608101845290546001600160a01b0381168252600160a01b81046001600160401b031692820192909252600160e01b90910460ff1615801592820192909252906107c85750610812565b80516001600160a01b0316156107dd57805192505b876001600160a01b0316836001600160a01b031603610810578684036108095750935061056d92505050565b6001909301925b505b600101610761565b50600080fd5b6001600160a01b03811633146108955760405162461bcd60e51b815260206004820152602f60248201527f416363657373436f6e74726f6c3a2063616e206f6e6c792072656e6f756e636560448201526e103937b632b9903337b91039b2b63360891b60648201526084015b60405180910390fd5b61089f82826113a4565b5050565b7f9f2df0fed2c77648de5860a4cc508cd0818c85b8b8a1ab4ceeef8d981c8956a66108ce81336110a6565b600f5460ff1615156001146109255760405162461bcd60e51b815260206004820152601e60248201527f5445414d5f524553455256455f4e4f545f5052454d494e5445445f5945540000604482015260640161088c565b600d54826109366001546000540390565b610940919061222d565b11156109835760405162461bcd60e51b815260206004820152601260248201527145786365656473206d617820737570706c7960701b604482015260640161088c565b6106d1838361140b565b6106d183838360405180602001604052806000815250610e68565b6000805481805b82811015610a2e57600081815260046020908152604091829020825160608101845290546001600160a01b0381168252600160a01b81046001600160401b031692820192909252600160e01b90910460ff16151591810182905290610a2557858303610a1e5750949350505050565b6001909201915b506001016109af565b506040516329c8c00760e21b815260040160405180910390fd5b6000610a5382611425565b5192915050565b60005b818110156106d1576000610a88848484818110610a7c57610a7c612245565b90506020020135611425565b80519091506001600160a01b031633141580610aa5575080604001515b15610af25760405162461bcd60e51b815260206004820152601b60248201527f4e6f74206f776e6572206f7220616c7265616479206275726e65640000000000604482015260640161088c565b610b13848484818110610b0757610b07612245565b9050602002013561153e565b5080610b1e8161225b565b915050610a5d565b6000610b3281336110a6565b60008211610b825760405162461bcd60e51b815260206004820152601f60248201527f5175616e74697479206d7573742062652067726561746572207468616e203000604482015260640161088c565b50600d55565b60006001600160a01b038216610bb1576040516323d3ad8160e21b815260040160405180910390fd5b506001600160a01b03166000908152600560205260409020546001600160401b031690565b6009546001600160a01b03163314610c305760405162461bcd60e51b815260206004820181905260248201527f4f776e61626c653a2063616c6c6572206973206e6f7420746865206f776e6572604482015260640161088c565b610c3a60006116ba565b565b6000610c4881336110a6565b81516106d190600b906020850190611d9c565b60009182526008602090815260408084206001600160a01b0393909316845291905290205460ff1690565b606060038054610582906121dd565b6000610ca181336110a6565b600f5460ff1615610cf45760405162461bcd60e51b815260206004820152601e60248201527f526573657276656420746f6b656e73206d696e74656420616c72656164790000604482015260640161088c565b600e5482610d056001546000540390565b610d0f919061222d565b1115610d5d5760405162461bcd60e51b815260206004820152601c60248201527f4d41585f52455345525645445f535550504c5920657863656564656400000000604482015260640161088c565b610d67338361140b565b600e5460015460005403600f80549190921460ff199091161790555050565b6000610d9281336110a6565b8151610da590600a906020850190611d9c565b5050600c805460ff1916600117905550565b336001600160a01b03831603610de05760405163b06307db60e01b815260040160405180910390fd5b3360008181526007602090815260408083206001600160a01b03871680855290835292819020805460ff191686151590811790915590519081529192917f17307eab39ab6107e8899845ad3d59bd9653f200f220920489ca2b5937696c31910160405180910390a35050565b6000610e5881336110a6565b50600c805460ff19166001179055565b610e7384848461110a565b610e7f8484848461170c565b610e9c576040516368d2bf6b60e11b815260040160405180910390fd5b50505050565b6060610ead8261101f565b610eca57604051630a14c4b560e41b815260040160405180910390fd5b61056d8261180f565b600082815260086020526040902060010154610eef81336110a6565b6106d183836113a4565b6009546001600160a01b03163314610f535760405162461bcd60e51b815260206004820181905260248201527f4f776e61626c653a2063616c6c6572206973206e6f7420746865206f776e6572604482015260640161088c565b6001600160a01b038116610fb85760405162461bcd60e51b815260206004820152602660248201527f4f776e61626c653a206e6577206f776e657220697320746865207a65726f206160448201526564647265737360d01b606482015260840161088c565b610fc1816116ba565b50565b6000610fd081336110a6565b61089f7f9f2df0fed2c77648de5860a4cc508cd0818c85b8b8a1ab4ceeef8d981c8956a68361190a565b60006001600160e01b03198216637965db0b60e01b148061056d575061056d82611914565b600080548210801561056d575050600090815260046020526040902054600160e01b900460ff161590565b60008281526006602052604080822080546001600160a01b0319166001600160a01b0387811691821790925591518593918516917f8c5be1e5ebec7d5bd14f71427d1e84f3dd0314c0f7b2291e5b200ac8c7c3b92591a4505050565b6110b08282610c5b565b61089f576110c8816001600160a01b0316601461197f565b6110d383602061197f565b6040516020016110e4929190612290565b60408051601f198184030181529082905262461bcd60e51b825261088c91600401611ec0565b600061111582611425565b80519091506000906001600160a01b0316336001600160a01b0316148061114357508151611143903361050e565b8061115e57503361115384610605565b6001600160a01b0316145b90508061117e57604051632ce44b5f60e11b815260040160405180910390fd5b846001600160a01b031682600001516001600160a01b0316146111b35760405162a1148160e81b815260040160405180910390fd5b6001600160a01b0384166111da57604051633a954ecd60e21b815260040160405180910390fd5b6111ea600084846000015161104a565b6001600160a01b038581166000908152600560209081526040808320805467ffffffffffffffff198082166001600160401b0392831660001901831617909255898616808652838620805493841693831660019081018416949094179055898652600490945282852080546001600160e01b031916909417600160a01b4290921691909102179092559086018083529120549091166112d4576000548110156112d457825160008281526004602090815260409091208054918601516001600160401b0316600160a01b026001600160e01b03199092166001600160a01b03909316929092171790555b5082846001600160a01b0316866001600160a01b03167fddf252ad1be2c89b69c2b068fc378daa952ba7f163c4a11628f55a4df523b3ef60405160405180910390a45b5050505050565b6113288282610c5b565b61089f5760008281526008602090815260408083206001600160a01b03851684529091529020805460ff191660011790556113603390565b6001600160a01b0316816001600160a01b0316837f2f8788117e7eff1d82e926ec794901d17c78024a50270940304540a733656f0d60405160405180910390a45050565b6113ae8282610c5b565b1561089f5760008281526008602090815260408083206001600160a01b0385168085529252808320805460ff1916905551339285917ff6391f5c32d9c69d2a47ea670b442974b53935d1edc7fd64eb21e047a839171b9190a45050565b61089f828260405180602001604052806000815250611b21565b604080516060810182526000808252602082018190529181018290529054829081101561152557600081815260046020908152604091829020825160608101845290546001600160a01b0381168252600160a01b81046001600160401b031692820192909252600160e01b90910460ff161515918101829052906115235780516001600160a01b0316156114ba579392505050565b5060001901600081815260046020908152604091829020825160608101845290546001600160a01b038116808352600160a01b82046001600160401b031693830193909352600160e01b900460ff161515928101929092521561151e579392505050565b6114ba565b505b604051636f96cda160e11b815260040160405180910390fd5b600061154982611425565b905061155b600083836000015161104a565b80516001600160a01b039081166000908152600560209081526040808320805467ffffffffffffffff1981166001600160401b0391821660001901821617909155855185168452818420805467ffffffffffffffff60801b198116600160801b9182900484166001908101851690920217909155865188865260049094528285208054600160e01b9588166001600160e01b031990911617600160a01b42909416939093029290921760ff60e01b19169390931790559085018083529120549091166116725760005481101561167257815160008281526004602090815260409091208054918501516001600160401b0316600160a01b026001600160e01b03199092166001600160a01b03909316929092171790555b50805160405183916000916001600160a01b03909116907fddf252ad1be2c89b69c2b068fc378daa952ba7f163c4a11628f55a4df523b3ef908390a450506001805481019055565b600980546001600160a01b038381166001600160a01b0319831681179093556040519116919082907f8be0079c531659141344cd1fd0a4f28419497f9722a3daafe3b4186f6b6457e090600090a35050565b60006001600160a01b0384163b1561180357604051630a85bd0160e11b81526001600160a01b0385169063150b7a0290611750903390899088908890600401612305565b6020604051808303816000875af192505050801561178b575060408051601f3d908101601f1916820190925261178891810190612342565b60015b6117e9573d8080156117b9576040519150601f19603f3d011682016040523d82523d6000602084013e6117be565b606091505b5080516000036117e1576040516368d2bf6b60e11b815260040160405180910390fd5b805181602001fd5b6001600160e01b031916630a85bd0160e11b149050611807565b5060015b949350505050565b600c5460609060ff166118ae57600b8054611829906121dd565b80601f0160208091040260200160405190810160405280929190818152602001828054611855906121dd565b80156118a25780601f10611877576101008083540402835291602001916118a2565b820191906000526020600020905b81548152906001019060200180831161188557829003601f168201915b50505050509050919050565b600a80546118bb906121dd565b90506000036118d9576040518060200160405280600081525061056d565b600a6118e483611b2e565b6040516020016118f592919061235f565b60405160208183030381529060405292915050565b61089f828261131e565b60006001600160e01b031982166380ac58cd60e01b148061194557506001600160e01b03198216635b5e139f60e01b145b8061196057506001600160e01b0319821663780e9d6360e01b145b8061056d57506301ffc9a760e01b6001600160e01b031983161461056d565b6060600061198e836002612405565b61199990600261222d565b6001600160401b038111156119b0576119b0612029565b6040519080825280601f01601f1916602001820160405280156119da576020820181803683370190505b509050600360fc1b816000815181106119f5576119f5612245565b60200101906001600160f81b031916908160001a905350600f60fb1b81600181518110611a2457611a24612245565b60200101906001600160f81b031916908160001a9053506000611a48846002612405565b611a5390600161222d565b90505b6001811115611acb576f181899199a1a9b1b9c1cb0b131b232b360811b85600f1660108110611a8757611a87612245565b1a60f81b828281518110611a9d57611a9d612245565b60200101906001600160f81b031916908160001a90535060049490941c93611ac481612424565b9050611a56565b508315611b1a5760405162461bcd60e51b815260206004820181905260248201527f537472696e67733a20686578206c656e67746820696e73756666696369656e74604482015260640161088c565b9392505050565b6106d18383836001611c2e565b606081600003611b555750506040805180820190915260018152600360fc1b602082015290565b8160005b8115611b7f5780611b698161225b565b9150611b789050600a83612451565b9150611b59565b6000816001600160401b03811115611b9957611b99612029565b6040519080825280601f01601f191660200182016040528015611bc3576020820181803683370190505b5090505b841561180757611bd8600183612465565b9150611be5600a8661247c565b611bf090603061222d565b60f81b818381518110611c0557611c05612245565b60200101906001600160f81b031916908160001a905350611c27600a86612451565b9450611bc7565b6000546001600160a01b038516611c5757604051622e076360e81b815260040160405180910390fd5b83600003611c785760405163b562e8dd60e01b815260040160405180910390fd5b6001600160a01b038516600081815260056020908152604080832080546fffffffffffffffffffffffffffffffff1981166001600160401b038083168c0181169182176801000000000000000067ffffffffffffffff1990941690921783900481168c018116909202179091558584526004909252822080546001600160e01b031916909317600160a01b42909216919091021790915581905b85811015611d935760405182906001600160a01b038916906000907fddf252ad1be2c89b69c2b068fc378daa952ba7f163c4a11628f55a4df523b3ef908290a4838015611d695750611d67600088848861170c565b155b15611d87576040516368d2bf6b60e11b815260040160405180910390fd5b60019182019101611d12565b50600055611317565b828054611da8906121dd565b90600052602060002090601f016020900481019282611dca5760008555611e10565b82601f10611de357805160ff1916838001178555611e10565b82800160010185558215611e10579182015b82811115611e10578251825591602001919060010190611df5565b50611e1c929150611e20565b5090565b5b80821115611e1c5760008155600101611e21565b6001600160e01b031981168114610fc157600080fd5b600060208284031215611e5d57600080fd5b8135611b1a81611e35565b60005b83811015611e83578181015183820152602001611e6b565b83811115610e9c5750506000910152565b60008151808452611eac816020860160208601611e68565b601f01601f19169290920160200192915050565b602081526000611b1a6020830184611e94565b600060208284031215611ee557600080fd5b5035919050565b80356001600160a01b0381168114611f0357600080fd5b919050565b60008060408385031215611f1b57600080fd5b611f2483611eec565b946020939093013593505050565b600080600060608486031215611f4757600080fd5b611f5084611eec565b9250611f5e60208501611eec565b9150604084013590509250925092565b60008060408385031215611f8157600080fd5b82359150611f9160208401611eec565b90509250929050565b60008060208385031215611fad57600080fd5b82356001600160401b0380821115611fc457600080fd5b818501915085601f830112611fd857600080fd5b813581811115611fe757600080fd5b8660208260051b8501011115611ffc57600080fd5b60209290920196919550909350505050565b60006020828403121561202057600080fd5b611b1a82611eec565b634e487b7160e01b600052604160045260246000fd5b60006001600160401b038084111561205957612059612029565b604051601f8501601f19908116603f0116810190828211818310171561208157612081612029565b8160405280935085815286868601111561209a57600080fd5b858560208301376000602087830101525050509392505050565b6000602082840312156120c657600080fd5b81356001600160401b038111156120dc57600080fd5b8201601f810184136120ed57600080fd5b6118078482356020840161203f565b6000806040838503121561210f57600080fd5b61211883611eec565b91506020830135801515811461212d57600080fd5b809150509250929050565b6000806000806080858703121561214e57600080fd5b61215785611eec565b935061216560208601611eec565b92506040850135915060608501356001600160401b0381111561218757600080fd5b8501601f8101871361219857600080fd5b6121a78782356020840161203f565b91505092959194509250565b600080604083850312156121c657600080fd5b6121cf83611eec565b9150611f9160208401611eec565b600181811c908216806121f157607f821691505b60208210810361221157634e487b7160e01b600052602260045260246000fd5b50919050565b634e487b7160e01b600052601160045260246000fd5b6000821982111561224057612240612217565b500190565b634e487b7160e01b600052603260045260246000fd5b60006001820161226d5761226d612217565b5060010190565b60008151612286818560208601611e68565b9290920192915050565b7f416363657373436f6e74726f6c3a206163636f756e74200000000000000000008152600083516122c8816017850160208801611e68565b7001034b99036b4b9b9b4b733903937b6329607d1b60179184019182015283516122f9816028840160208801611e68565b01602801949350505050565b6001600160a01b038581168252841660208201526040810183905260806060820181905260009061233890830184611e94565b9695505050505050565b60006020828403121561235457600080fd5b8151611b1a81611e35565b600080845481600182811c91508083168061237b57607f831692505b6020808410820361239a57634e487b7160e01b86526022600452602486fd5b8180156123ae57600181146123bf576123ec565b60ff198616895284890196506123ec565b60008b81526020902060005b868110156123e45781548b8201529085019083016123cb565b505084890196505b5050505050506123fc8185612274565b95945050505050565b600081600019048311821515161561241f5761241f612217565b500290565b60008161243357612433612217565b506000190190565b634e487b7160e01b600052601260045260246000fd5b6000826124605761246061243b565b500490565b60008282101561247757612477612217565b500390565b60008261248b5761248b61243b565b50069056fea2646970667358221220b628223c8c63fd5d1dde560f1aa409fdce80b867f9f8988089e412c7db9da74264736f6c634300080d0033",
    "linkReferences": {},
    "deployedLinkReferences": {}
}