{
    "_format": "hh-sol-artifact-1",
    "contractName": "NFTStaking",
    "sourceName": "contracts/NFTStaking.sol",
    "abi": [
        {
            "inputs": [
                {
                    "internalType": "address",
                    "name": "_token1",
                    "type": "address"
                }
            ],
            "stateMutability": "nonpayable",
            "type": "constructor"
        },
        {
            "anonymous": false,
            "inputs": [
                {
                    "indexed": true,
                    "internalType": "address",
                    "name": "staker",
                    "type": "address"
                },
                {
                    "indexed": false,
                    "internalType": "address",
                    "name": "nftContract",
                    "type": "address"
                },
                {
                    "indexed": false,
                    "internalType": "uint256",
                    "name": "tokensAmount",
                    "type": "uint256"
                }
            ],
            "name": "Deposited",
            "type": "event"
        },
        {
            "anonymous": false,
            "inputs": [
                {
                    "indexed": true,
                    "internalType": "address",
                    "name": "previousOwner",
                    "type": "address"
                },
                {
                    "indexed": true,
                    "internalType": "address",
                    "name": "newOwner",
                    "type": "address"
                }
            ],
            "name": "OwnershipTransferred",
            "type": "event"
        },
        {
            "anonymous": false,
            "inputs": [
                {
                    "indexed": true,
                    "internalType": "address",
                    "name": "staker",
                    "type": "address"
                },
                {
                    "indexed": false,
                    "internalType": "address",
                    "name": "nftContract",
                    "type": "address"
                },
                {
                    "indexed": false,
                    "internalType": "uint256",
                    "name": "tokensAmount",
                    "type": "uint256"
                }
            ],
            "name": "Withdrawed",
            "type": "event"
        },
        {
            "anonymous": false,
            "inputs": [
                {
                    "indexed": true,
                    "internalType": "address",
                    "name": "receiver",
                    "type": "address"
                },
                {
                    "indexed": true,
                    "internalType": "address",
                    "name": "tokenAddress",
                    "type": "address"
                },
                {
                    "indexed": true,
                    "internalType": "uint256",
                    "name": "tokenId",
                    "type": "uint256"
                }
            ],
            "name": "WithdrawedStuckERC721",
            "type": "event"
        },
        {
            "inputs": [],
            "name": "SECONDS_IN_DAY",
            "outputs": [
                {
                    "internalType": "uint256",
                    "name": "",
                    "type": "uint256"
                }
            ],
            "stateMutability": "view",
            "type": "function"
        },
        {
            "inputs": [
                {
                    "internalType": "address",
                    "name": "userAddress",
                    "type": "address"
                }
            ],
            "name": "calculateBoostersYield",
            "outputs": [
                {
                    "internalType": "uint256",
                    "name": "",
                    "type": "uint256"
                }
            ],
            "stateMutability": "view",
            "type": "function"
        },
        {
            "inputs": [
                {
                    "internalType": "enum NFTStaking.ContractTypes",
                    "name": "contractType",
                    "type": "uint8"
                },
                {
                    "internalType": "uint256[]",
                    "name": "tokenIds",
                    "type": "uint256[]"
                }
            ],
            "name": "deposit",
            "outputs": [],
            "stateMutability": "nonpayable",
            "type": "function"
        },
        {
            "inputs": [],
            "name": "depositPaused",
            "outputs": [
                {
                    "internalType": "bool",
                    "name": "",
                    "type": "bool"
                }
            ],
            "stateMutability": "view",
            "type": "function"
        },
        {
            "inputs": [
                {
                    "internalType": "enum NFTStaking.ContractTypes",
                    "name": "contractType",
                    "type": "uint8"
                },
                {
                    "internalType": "uint256[]",
                    "name": "tokenIds",
                    "type": "uint256[]"
                }
            ],
            "name": "emergencyWithdraw",
            "outputs": [],
            "stateMutability": "nonpayable",
            "type": "function"
        },
        {
            "inputs": [
                {
                    "internalType": "enum NFTStaking.ContractTypes",
                    "name": "contractType",
                    "type": "uint8"
                },
                {
                    "internalType": "uint8[]",
                    "name": "tokenIds",
                    "type": "uint8[]"
                }
            ],
            "name": "getCategoriesForTokens",
            "outputs": [
                {
                    "internalType": "uint8[]",
                    "name": "",
                    "type": "uint8[]"
                }
            ],
            "stateMutability": "view",
            "type": "function"
        },
        {
            "inputs": [
                {
                    "internalType": "enum NFTStaking.ContractTypes",
                    "name": "contractType",
                    "type": "uint8"
                },
                {
                    "internalType": "uint256",
                    "name": "tokenId",
                    "type": "uint256"
                }
            ],
            "name": "getCategoryOfToken",
            "outputs": [
                {
                    "internalType": "uint8",
                    "name": "",
                    "type": "uint8"
                }
            ],
            "stateMutability": "view",
            "type": "function"
        },
        {
            "inputs": [
                {
                    "internalType": "address",
                    "name": "userAddress",
                    "type": "address"
                }
            ],
            "name": "getCurrentYield",
            "outputs": [
                {
                    "internalType": "uint256",
                    "name": "",
                    "type": "uint256"
                }
            ],
            "stateMutability": "view",
            "type": "function"
        },
        {
            "inputs": [
                {
                    "internalType": "enum NFTStaking.ContractTypes",
                    "name": "contractType",
                    "type": "uint8"
                },
                {
                    "internalType": "address",
                    "name": "staker",
                    "type": "address"
                }
            ],
            "name": "getStakerTokens",
            "outputs": [
                {
                    "internalType": "uint256[]",
                    "name": "tokens",
                    "type": "uint256[]"
                }
            ],
            "stateMutability": "view",
            "type": "function"
        },
        {
            "inputs": [
                {
                    "internalType": "enum NFTStaking.ContractTypes",
                    "name": "contractType",
                    "type": "uint8"
                },
                {
                    "internalType": "uint256",
                    "name": "tokenId",
                    "type": "uint256"
                }
            ],
            "name": "getTokenYield",
            "outputs": [
                {
                    "internalType": "uint256",
                    "name": "",
                    "type": "uint256"
                }
            ],
            "stateMutability": "view",
            "type": "function"
        },
        {
            "inputs": [
                {
                    "internalType": "address",
                    "name": "staker",
                    "type": "address"
                }
            ],
            "name": "getTotalRewards",
            "outputs": [
                {
                    "internalType": "uint256",
                    "name": "",
                    "type": "uint256"
                }
            ],
            "stateMutability": "view",
            "type": "function"
        },
        {
            "inputs": [
                {
                    "internalType": "address",
                    "name": "staker",
                    "type": "address"
                }
            ],
            "name": "getUnclaimedRewards",
            "outputs": [
                {
                    "internalType": "uint256",
                    "name": "",
                    "type": "uint256"
                }
            ],
            "stateMutability": "view",
            "type": "function"
        },
        {
            "inputs": [
                {
                    "internalType": "enum NFTStaking.ContractTypes",
                    "name": "contractType",
                    "type": "uint8"
                },
                {
                    "internalType": "uint256[]",
                    "name": "tokenIds",
                    "type": "uint256[]"
                }
            ],
            "name": "getYieldsForTokens",
            "outputs": [
                {
                    "internalType": "uint256[]",
                    "name": "",
                    "type": "uint256[]"
                }
            ],
            "stateMutability": "view",
            "type": "function"
        },
        {
            "inputs": [],
            "name": "launchStaking",
            "outputs": [],
            "stateMutability": "nonpayable",
            "type": "function"
        },
        {
            "inputs": [
                {
                    "internalType": "uint256",
                    "name": "",
                    "type": "uint256"
                }
            ],
            "name": "numberOfCategoryPerType",
            "outputs": [
                {
                    "internalType": "uint256",
                    "name": "",
                    "type": "uint256"
                }
            ],
            "stateMutability": "view",
            "type": "function"
        },
        {
            "inputs": [
                {
                    "internalType": "address",
                    "name": "",
                    "type": "address"
                },
                {
                    "internalType": "address",
                    "name": "",
                    "type": "address"
                },
                {
                    "internalType": "uint256",
                    "name": "",
                    "type": "uint256"
                },
                {
                    "internalType": "bytes",
                    "name": "",
                    "type": "bytes"
                }
            ],
            "name": "onERC721Received",
            "outputs": [
                {
                    "internalType": "bytes4",
                    "name": "",
                    "type": "bytes4"
                }
            ],
            "stateMutability": "pure",
            "type": "function"
        },
        {
            "inputs": [],
            "name": "owner",
            "outputs": [
                {
                    "internalType": "address",
                    "name": "",
                    "type": "address"
                }
            ],
            "stateMutability": "view",
            "type": "function"
        },
        {
            "inputs": [
                {
                    "internalType": "enum NFTStaking.ContractTypes",
                    "name": "contractType",
                    "type": "uint8"
                },
                {
                    "internalType": "uint256",
                    "name": "tokenId",
                    "type": "uint256"
                }
            ],
            "name": "ownerOf",
            "outputs": [
                {
                    "internalType": "address",
                    "name": "",
                    "type": "address"
                }
            ],
            "stateMutability": "view",
            "type": "function"
        },
        {
            "inputs": [
                {
                    "internalType": "bool",
                    "name": "_pause",
                    "type": "bool"
                }
            ],
            "name": "pauseDeposit",
            "outputs": [],
            "stateMutability": "nonpayable",
            "type": "function"
        },
        {
            "inputs": [],
            "name": "renounceOwnership",
            "outputs": [],
            "stateMutability": "nonpayable",
            "type": "function"
        },
        {
            "inputs": [
                {
                    "internalType": "enum NFTStaking.ContractTypes",
                    "name": "contractType",
                    "type": "uint8"
                },
                {
                    "internalType": "bytes",
                    "name": "categoryInBytes",
                    "type": "bytes"
                }
            ],
            "name": "setCategoriesBatch",
            "outputs": [],
            "stateMutability": "nonpayable",
            "type": "function"
        },
        {
            "inputs": [
                {
                    "internalType": "enum NFTStaking.ContractTypes",
                    "name": "contractType",
                    "type": "uint8"
                },
                {
                    "internalType": "uint8",
                    "name": "category",
                    "type": "uint8"
                },
                {
                    "internalType": "uint256",
                    "name": "yield",
                    "type": "uint256"
                }
            ],
            "name": "setCategoryYield",
            "outputs": [],
            "stateMutability": "nonpayable",
            "type": "function"
        },
        {
            "inputs": [
                {
                    "internalType": "enum NFTStaking.ContractTypes",
                    "name": "contractType",
                    "type": "uint8"
                },
                {
                    "internalType": "uint256[]",
                    "name": "yields",
                    "type": "uint256[]"
                }
            ],
            "name": "setCategoryYieldsBatch",
            "outputs": [],
            "stateMutability": "nonpayable",
            "type": "function"
        },
        {
            "inputs": [
                {
                    "internalType": "address",
                    "name": "token1",
                    "type": "address"
                },
                {
                    "internalType": "address",
                    "name": "token2",
                    "type": "address"
                },
                {
                    "internalType": "address",
                    "name": "booster",
                    "type": "address"
                }
            ],
            "name": "setTokenAddresses",
            "outputs": [],
            "stateMutability": "nonpayable",
            "type": "function"
        },
        {
            "inputs": [
                {
                    "internalType": "address",
                    "name": "",
                    "type": "address"
                }
            ],
            "name": "stakers",
            "outputs": [
                {
                    "internalType": "uint256",
                    "name": "claimedRewards",
                    "type": "uint256"
                },
                {
                    "internalType": "uint256",
                    "name": "lastCheckpoint",
                    "type": "uint256"
                }
            ],
            "stateMutability": "view",
            "type": "function"
        },
        {
            "inputs": [],
            "name": "stakingLaunched",
            "outputs": [
                {
                    "internalType": "bool",
                    "name": "",
                    "type": "bool"
                }
            ],
            "stateMutability": "view",
            "type": "function"
        },
        {
            "inputs": [
                {
                    "internalType": "uint256",
                    "name": "",
                    "type": "uint256"
                }
            ],
            "name": "tokenAddresses",
            "outputs": [
                {
                    "internalType": "address",
                    "name": "",
                    "type": "address"
                }
            ],
            "stateMutability": "view",
            "type": "function"
        },
        {
            "inputs": [
                {
                    "internalType": "uint256",
                    "name": "",
                    "type": "uint256"
                }
            ],
            "name": "tokenTypeSeeded",
            "outputs": [
                {
                    "internalType": "bool",
                    "name": "",
                    "type": "bool"
                }
            ],
            "stateMutability": "view",
            "type": "function"
        },
        {
            "inputs": [
                {
                    "internalType": "address",
                    "name": "newOwner",
                    "type": "address"
                }
            ],
            "name": "transferOwnership",
            "outputs": [],
            "stateMutability": "nonpayable",
            "type": "function"
        },
        {
            "inputs": [
                {
                    "internalType": "enum NFTStaking.ContractTypes",
                    "name": "contractType",
                    "type": "uint8"
                },
                {
                    "internalType": "uint256[]",
                    "name": "tokenIds",
                    "type": "uint256[]"
                }
            ],
            "name": "withdraw",
            "outputs": [],
            "stateMutability": "nonpayable",
            "type": "function"
        },
        {
            "inputs": [
                {
                    "internalType": "uint256",
                    "name": "",
                    "type": "uint256"
                },
                {
                    "internalType": "uint256",
                    "name": "",
                    "type": "uint256"
                }
            ],
            "name": "yieldsPerCategoryPerTokenType",
            "outputs": [
                {
                    "internalType": "uint256",
                    "name": "",
                    "type": "uint256"
                }
            ],
            "stateMutability": "view",
            "type": "function"
        }
    ],
    "bytecode": "0x60e06040526005608081815260a091909152600360c081905262000026916007916200011d565b503480156200003457600080fd5b5060405162002acb38038062002acb83398101604081905262000057916200017c565b6200006233620000cd565b60018055600380546001600160a01b0319166001600160a01b039290921691909117905568056bc75e2d63100000600a5568068155a43676e00000600b55680796e3ea3f8ab00000600c55680821ab0d4414980000600d55681043561a8829300000600e55620001ae565b600080546001600160a01b038381166001600160a01b0319831681178455604051919092169283917f8be0079c531659141344cd1fd0a4f28419497f9722a3daafe3b4186f6b6457e09190a35050565b826003810192821562000153579160200282015b8281111562000153578251829060ff1690559160200191906001019062000131565b506200016192915062000165565b5090565b5b8082111562000161576000815560010162000166565b6000602082840312156200018f57600080fd5b81516001600160a01b0381168114620001a757600080fd5b9392505050565b61290d80620001be6000396000f3fe608060405234801561001057600080fd5b50600436106101e55760003560e01c80638da5cb5b1161010f578063cc1c304a116100a2578063e1af569811610071578063e1af569814610495578063e5df8b84146104a2578063e7bc0d21146104b5578063f2fde38b146104c857600080fd5b8063cc1c304a14610449578063cff418a41461045c578063d1edbc531461046f578063d8de05d11461048257600080fd5b8063a80a02a7116100de578063a80a02a7146103de578063a9b8b958146103fe578063b471f68614610411578063c75062e01461042457600080fd5b80638da5cb5b146103625780639168ae72146103875780639a2e1e7e146103c3578063a30a2474146103d657600080fd5b80634d3f9d3e1161018757806361a52a361161015657806361a52a361461032a5780636460e82c1461033457806369a69e2914610347578063715018a61461035a57600080fd5b80634d3f9d3e146102de5780635732140c146102f157806357af2255146103045780635d311c471461031757600080fd5b8063150b7a02116101c3578063150b7a02146102465780632bcf161c1461029757806340c06d72146102b8578063415855d6146102cb57600080fd5b806302befd24146101ea57806308dcdefa1461021157806312377b3e14610231575b600080fd5b6002546101fc90610100900460ff1681565b60405190151581526020015b60405180910390f35b61022461021f366004612284565b6104db565b60405161020891906122bb565b61024461023f36600461236a565b61066f565b005b61027e61025436600461245c565b7f150b7a023d4804d13e8c85fb27262cb750cf6ba9f9dd3bb30d90f482ceeb4b1f95945050505050565b6040516001600160e01b03199091168152602001610208565b6102aa6102a53660046124cf565b610976565b604051908152602001610208565b6102446102c63660046124f3565b6109a4565b6102446102d9366004612546565b610a98565b6102446102ec366004612568565b610adc565b6102aa6102ff3660046124cf565b610b45565b6101fc6103123660046125b3565b610c3d565b61024461032536600461236a565b610c67565b6102aa6201518081565b61024461034236600461236a565b610d6c565b6102aa6103553660046124cf565b6112dc565b61024461134d565b6000546001600160a01b03165b6040516001600160a01b039091168152602001610208565b6103ae6103953660046124cf565b601c602052600090815260409020805460019091015482565b60408051928352602083019190915201610208565b6102446103d136600461236a565b611383565b61024461193a565b6103f16103ec3660046125dd565b6119bc565b6040516102089190612679565b6102aa61040c3660046126b4565b611a76565b61036f61041f3660046126b4565b611acb565b6104376104323660046126b4565b611b12565b60405160ff9091168152602001610208565b61022461045736600461236a565b611c1e565b61024461046a3660046126de565b611cc6565b6102aa61047d3660046124cf565b611dac565b6102aa6104903660046125b3565b611eb6565b6002546101fc9060ff1681565b61036f6104b03660046125b3565b611ecd565b6102aa6104c336600461271a565b611eed565b6102446104d63660046124cf565b611f18565b606060008360028111156104f1576104f161273c565b03610563576001600160a01b0382166000908152601c60209081526040918290206002018054835181840281018401909452808452909183018282801561055757602002820191906000526020600020905b815481526020019060010190808311610543575b50505050509050610669565b60018360028111156105775761057761273c565b036105e7576001600160a01b0382166000908152601c60209081526040918290206003018054835181840281018401909452808452909183018282801561055757602002820191906000526020600020908154815260200190600101908083116105435750505050509050610669565b60028360028111156105fb576105fb61273c565b03610669576001600160a01b0382166000908152601c60209081526040918290206004018054835181840281018401909452808452909183018282801561066157602002820191906000526020600020905b81548152602001906001019080831161064d575b505050505090505b92915050565b6000546001600160a01b031633146106a25760405162461bcd60e51b815260040161069990612752565b60405180910390fd5b6032815111156106e75760405162461bcd60e51b815260206004820152601060248201526f06a6040d2e640dac2f040e0cae440e8f60831b6044820152606401610699565b60038260028111156106fb576106fb61273c565b106107185760405162461bcd60e51b815260040161069990612787565b6000600383600281111561072e5761072e61273c565b6003811061073e5761073e6127b5565b01546001600160a01b031690506107556001610a98565b60005b8251811015610970576000601d60008660028111156107795761077961273c565b8152602001908152602001600020600085848151811061079b5761079b6127b5565b6020908102919091018101518252810191909152604001600020546001600160a01b0316905080158015906108685750306001600160a01b0316836001600160a01b0316636352211e8685815181106107f6576107f66127b5565b60200260200101516040518263ffffffff1660e01b815260040161081c91815260200190565b602060405180830381865afa158015610839573d6000803e3d6000fd5b505050506040513d601f19601f8201168201806040525081019061085d91906127cb565b6001600160a01b0316145b1561095d57826001600160a01b03166323b872dd3083878681518110610890576108906127b5565b60209081029190910101516040516001600160e01b031960e086901b1681526001600160a01b0393841660048201529290911660248301526044820152606401600060405180830381600087803b1580156108ea57600080fd5b505af11580156108fe573d6000803e3d6000fd5b50505050838281518110610914576109146127b5565b6020026020010151836001600160a01b0316826001600160a01b03167f1837113a5597b63cd0d2f9735141fa42e6ea536bd36c7e2ffa51028ef47808bc60405160405180910390a45b5080610968816127fe565b915050610758565b50505050565b6000610981826112dc565b6001600160a01b0383166000908152601c60205260409020546106699190612817565b6000546001600160a01b031633146109ce5760405162461bcd60e51b815260040161069990612752565b600160068460028111156109e4576109e461273c565b600381106109f4576109f46127b5565b602091828204019190066101000a81548160ff02191690831515021790555060006002811115610a2657610a2661273c565b836002811115610a3857610a3861273c565b03610a495761097060198383612187565b6001836002811115610a5d57610a5d61273c565b03610a6e57610970601a8383612187565b6002836002811115610a8257610a8261273c565b03610a9357610970601b8383612187565b505050565b6000546001600160a01b03163314610ac25760405162461bcd60e51b815260040161069990612752565b600280549115156101000261ff0019909216919091179055565b6000546001600160a01b03163314610b065760405162461bcd60e51b815260040161069990612752565b600380546001600160a01b039485166001600160a01b031991821617909155600480549385169382169390931790925560058054919093169116179055565b6001600160a01b0381166000908152601c60209081526040808320600281015460049091018054835181860281018601909452808452919385939290830182828015610bb057602002820191906000526020600020905b815481526020019060010190808311610b9c575b505050505090506000826002610bc6919061282f565b9050600081835110610bd85781610bdb565b82515b90506000805b82811015610c32576000858281518110610bfd57610bfd6127b5565b60200260200101519050610c12600282611a76565b610c1c9084612817565b9250508080610c2a906127fe565b915050610be1565b509695505050505050565b60068160038110610c4d57600080fd5b60209182820401919006915054906101000a900460ff1681565b6000546001600160a01b03163314610c915760405162461bcd60e51b815260040161069990612752565b6007826002811115610ca557610ca561273c565b60038110610cb557610cb56127b5565b0154815114610cf95760405162461bcd60e51b815260206004820152601060248201526f098cadccee8d040dcdee840dac2e8c6d60831b6044820152606401610699565b60005b8151811015610a9357818181518110610d1757610d176127b5565b6020026020010151600a846002811115610d3357610d3361273c565b60038110610d4357610d436127b5565b600502018260058110610d5857610d586127b5565b015580610d64816127fe565b915050610cfc565b600260015403610dbe5760405162461bcd60e51b815260206004820152601f60248201527f5265656e7472616e637947756172643a207265656e7472616e742063616c6c006044820152606401610699565b60026001819055506003826002811115610dda57610dda61273c565b10610df75760405162461bcd60e51b815260040161069990612787565b600254610100900460ff1615610e405760405162461bcd60e51b815260206004820152600e60248201526d11195c1bdcda5d081c185d5cd95960921b6044820152606401610699565b60025460ff16610e885760405162461bcd60e51b815260206004820152601360248201527214dd185ada5b99c81a5cc8191a5cd8589b1959606a1b6044820152606401610699565b6000815111610ed25760405162461bcd60e51b8152602060048201526016602482015275139bc81d1bdad95b8812591cc81cdc1958da599a595960521b6044820152606401610699565b60006003836002811115610ee857610ee861273c565b60038110610ef857610ef86127b5565b01546001600160a01b03169050610f0e33611fb3565b336000908152601c6020526040902060028481811115610f3057610f3061273c565b03610fa357600280820154610f449161282f565b83516004830154610f559190612817565b1115610fa35760405162461bcd60e51b815260206004820152601f60248201527f4d6178696d756d206e756d206f6620626f6f73746572732072656163686564006044820152606401610699565b60005b835181101561128957336001600160a01b0316836001600160a01b0316636352211e868481518110610fda57610fda6127b5565b60200260200101516040518263ffffffff1660e01b815260040161100091815260200190565b602060405180830381865afa15801561101d573d6000803e3d6000fd5b505050506040513d601f19601f8201168201806040525081019061104191906127cb565b6001600160a01b0316146110875760405162461bcd60e51b815260206004820152600d60248201526c2737ba103a34329037bbb732b960991b6044820152606401610699565b6001600160a01b0383166342842e0e33308785815181106110aa576110aa6127b5565b60209081029190910101516040516001600160e01b031960e086901b1681526001600160a01b0393841660048201529290911660248301526044820152606401600060405180830381600087803b15801561110457600080fd5b505af1158015611118573d6000803e3d6000fd5b505050506111233390565b601d60008760028111156111395761113961273c565b8152602001908152602001600020600086848151811061115b5761115b6127b5565b6020026020010151815260200190815260200160002060006101000a8154816001600160a01b0302191690836001600160a01b03160217905550600060028111156111a8576111a861273c565b8560028111156111ba576111ba61273c565b036111f957816002018482815181106111d5576111d56127b5565b60209081029190910181015182546001810184556000938452919092200155611277565b600185600281111561120d5761120d61273c565b0361122857816003018482815181106111d5576111d56127b5565b600285600281111561123c5761123c61273c565b036112775781600401848281518110611257576112576127b5565b602090810291909101810151825460018101845560009384529190922001555b80611281816127fe565b915050610fa6565b508251604080516001600160a01b0385168152602081019290925233917f8752a472e571a816aea92eec8dae9baf628e840f4929fbcc2d155e6233ff68a791015b60405180910390a25050600180555050565b6001600160a01b0381166000908152601c6020526040812060010154810361130657506000919050565b6201518061131383611dac565b6001600160a01b0384166000908152601c6020526040902060010154611339904261284e565b611343919061282f565b6106699190612865565b6000546001600160a01b031633146113775760405162461bcd60e51b815260040161069990612752565b6113816000612009565b565b6002600154036113d55760405162461bcd60e51b815260206004820152601f60248201527f5265656e7472616e637947756172643a207265656e7472616e742063616c6c006044820152606401610699565b600260018190555060038260028111156113f1576113f161273c565b1061140e5760405162461bcd60e51b815260040161069990612787565b60008151116114585760405162461bcd60e51b8152602060048201526016602482015275139bc81d1bdad95b8812591cc81cdc1958da599a595960521b6044820152606401610699565b6000600383600281111561146e5761146e61273c565b6003811061147e5761147e6127b5565b01546001600160a01b0316905061149433611fb3565b336000908152601c60205260408120905b83518110156118f55760008482815181106114c2576114c26127b5565b60200260200101519050306001600160a01b0316846001600160a01b0316636352211e836040518263ffffffff1660e01b815260040161150491815260200190565b602060405180830381865afa158015611521573d6000803e3d6000fd5b505050506040513d601f19601f8201168201806040525081019061154591906127cb565b6001600160a01b03161461159b5760405162461bcd60e51b815260206004820152601960248201527f496e76616c696420746f6b656e4964732070726f7669646564000000000000006044820152606401610699565b33601d60008860028111156115b2576115b261273c565b8152602080820192909252604090810160009081208582529092529020546001600160a01b0316146116185760405162461bcd60e51b815260206004820152600f60248201526e2737ba103a37b5b2b71037bbb732b960891b6044820152606401610699565b6000601d60008860028111156116305761163061273c565b815260208082019290925260409081016000908120858252909252812080546001600160a01b0319166001600160a01b03939093169290921790915586600281111561167e5761167e61273c565b03611724576116df836002018054806020026020016040519081016040528092919081815260200182805480156116d457602002820191906000526020600020905b8154815260200190600101908083116116c0575b505050505082612059565b80516116f591600286019160209091019061220b565b508260020180548061170957611709612887565b60019003818190600052602060002001600090559055611875565b60018660028111156117385761173861273c565b036117c157611797836003018054806020026020016040519081016040528092919081815260200182805480156116d457602002820191906000526020600020908154815260200190600101908083116116c057505050505082612059565b80516117ad91600386019160209091019061220b565b508260030180548061170957611709612887565b60028660028111156117d5576117d561273c565b0361187557611834836004018054806020026020016040519081016040528092919081815260200182805480156116d457602002820191906000526020600020908154815260200190600101908083116116c057505050505082612059565b805161184a91600486019160209091019061220b565b508260040180548061185e5761185e612887565b600190038181906000526020600020016000905590555b60408051632142170760e11b81523060048201523360248201526044810183905290516001600160a01b038616916342842e0e91606480830192600092919082900301818387803b1580156118c957600080fd5b505af11580156118dd573d6000803e3d6000fd5b505050505080806118ed906127fe565b9150506114a5565b508251604080516001600160a01b0385168152602081019290925233917ff10eae2de0b095be715d0a32380cea8e913ae297b48430b5397024146ce9036591016112ca565b6000546001600160a01b031633146119645760405162461bcd60e51b815260040161069990612752565b60025460ff16156119ad5760405162461bcd60e51b815260206004820152601360248201527214dd185ada5b99c81dd85cc8195b98589b1959606a1b6044820152606401610699565b6002805460ff19166001179055565b60606000825167ffffffffffffffff8111156119da576119da6122ff565b604051908082528060200260200182016040528015611a03578160200160208202803683370190505b50905060005b8351811015611a6e57611a3885858381518110611a2857611a286127b5565b602002602001015160ff16611b12565b828281518110611a4a57611a4a6127b5565b60ff9092166020928302919091019091015280611a66816127fe565b915050611a09565b509392505050565b600080611a838484611b12565b9050600a846002811115611a9957611a9961273c565b60038110611aa957611aa96127b5565b600502018160ff1660058110611ac157611ac16127b5565b0154949350505050565b6000601d6000846002811115611ae357611ae361273c565b8152602080820192909252604090810160009081208582529092529020546001600160a01b0316905092915050565b60006006836002811115611b2857611b2861273c565b60038110611b3857611b386127b5565b602081049091015460ff601f9092166101000a9004161515600003611b5f57506000610669565b6000836002811115611b7357611b7361273c565b03611bc7576019828154611b869061289d565b8110611b9457611b946127b5565b815460011615611bb35790600052602060002090602091828204019190065b9054901a600160f81b0260f81c9050610669565b6001836002811115611bdb57611bdb61273c565b03611bee57601a828154611b869061289d565b6002836002811115611c0257611c0261273c565b03611c1557601b828154611b869061289d565b50600092915050565b60606000825167ffffffffffffffff811115611c3c57611c3c6122ff565b604051908082528060200260200182016040528015611c65578160200160208202803683370190505b50905060005b8351811015611a6e57611c9785858381518110611c8a57611c8a6127b5565b6020026020010151611a76565b828281518110611ca957611ca96127b5565b602090810291909101015280611cbe816127fe565b915050611c6b565b6000546001600160a01b03163314611cf05760405162461bcd60e51b815260040161069990612752565b6007836002811115611d0457611d0461273c565b60038110611d1457611d146127b5565b01548260ff161115611d685760405162461bcd60e51b815260206004820152601760248201527f496e76616c69642063617465676f7279206e756d6265720000000000000000006044820152606401610699565b80600a846002811115611d7d57611d7d61273c565b60038110611d8d57611d8d6127b5565b600502018360ff1660058110611da557611da56127b5565b0155505050565b6001600160a01b0381166000908152601c60205260408120600281015460039091015482805b83811015611e3b576001600160a01b0386166000908152601c602052604081206002018054611e1d92919084908110611e0d57611e0d6127b5565b9060005260206000200154611a76565b611e279083612817565b915080611e33816127fe565b915050611dd2565b5060005b82811015611e99576001600160a01b0386166000908152601c602052604090206003018054611e7b9160019184908110611e0d57611e0d6127b5565b611e859083612817565b915080611e91816127fe565b915050611e3f565b50611ea385610b45565b611ead9082612817565b95945050505050565b60078160038110611ec657600080fd5b0154905081565b60038160038110611edd57600080fd5b01546001600160a01b0316905081565b600a8260038110611efd57600080fd5b600502018160058110611f0f57600080fd5b01549150829050565b6000546001600160a01b03163314611f425760405162461bcd60e51b815260040161069990612752565b6001600160a01b038116611fa75760405162461bcd60e51b815260206004820152602660248201527f4f776e61626c653a206e6577206f776e657220697320746865207a65726f206160448201526564647265737360d01b6064820152608401610699565b611fb081612009565b50565b611fbc816112dc565b6001600160a01b0382166000908152601c602052604081208054909190611fe4908490612817565b90915550506001600160a01b03166000908152601c6020526040902042600190910155565b600080546001600160a01b038381166001600160a01b0319831681178455604051919092169283917f8be0079c531659141344cd1fd0a4f28419497f9722a3daafe3b4186f6b6457e09190a35050565b60606000806001855161206c919061284e565b855190915060005b818110156120c0578587828151811061208f5761208f6127b5565b6020026020010151036120ae576120a7816001612817565b93506120c0565b806120b8816127fe565b915050612074565b50826000036121115760405162461bcd60e51b815260206004820152601b60248201527f6d73672e73656e646572206973206e6f7420746865206f776e657200000000006044820152606401610699565b61211c60018461284e565b925081831461217d57858281518110612137576121376127b5565b6020026020010151868481518110612151576121516127b5565b60200260200101818152505084868381518110612170576121706127b5565b6020026020010181815250505b5093949350505050565b8280546121939061289d565b90600052602060002090601f0160209004810192826121b557600085556121fb565b82601f106121ce5782800160ff198235161785556121fb565b828001600101855582156121fb579182015b828111156121fb5782358255916020019190600101906121e0565b50612207929150612246565b5090565b8280548282559060005260206000209081019282156121fb579160200282015b828111156121fb57825182559160200191906001019061222b565b5b808211156122075760008155600101612247565b80356003811061226a57600080fd5b919050565b6001600160a01b0381168114611fb057600080fd5b6000806040838503121561229757600080fd5b6122a08361225b565b915060208301356122b08161226f565b809150509250929050565b6020808252825182820181905260009190848201906040850190845b818110156122f3578351835292840192918401916001016122d7565b50909695505050505050565b634e487b7160e01b600052604160045260246000fd5b604051601f8201601f1916810167ffffffffffffffff8111828210171561233e5761233e6122ff565b604052919050565b600067ffffffffffffffff821115612360576123606122ff565b5060051b60200190565b6000806040838503121561237d57600080fd5b6123868361225b565b915060208084013567ffffffffffffffff8111156123a357600080fd5b8401601f810186136123b457600080fd5b80356123c76123c282612346565b612315565b81815260059190911b820183019083810190888311156123e657600080fd5b928401925b82841015612404578335825292840192908401906123eb565b80955050505050509250929050565b60008083601f84011261242557600080fd5b50813567ffffffffffffffff81111561243d57600080fd5b60208301915083602082850101111561245557600080fd5b9250929050565b60008060008060006080868803121561247457600080fd5b853561247f8161226f565b9450602086013561248f8161226f565b935060408601359250606086013567ffffffffffffffff8111156124b257600080fd5b6124be88828901612413565b969995985093965092949392505050565b6000602082840312156124e157600080fd5b81356124ec8161226f565b9392505050565b60008060006040848603121561250857600080fd5b6125118461225b565b9250602084013567ffffffffffffffff81111561252d57600080fd5b61253986828701612413565b9497909650939450505050565b60006020828403121561255857600080fd5b813580151581146124ec57600080fd5b60008060006060848603121561257d57600080fd5b83356125888161226f565b925060208401356125988161226f565b915060408401356125a88161226f565b809150509250925092565b6000602082840312156125c557600080fd5b5035919050565b803560ff8116811461226a57600080fd5b600080604083850312156125f057600080fd5b6125f98361225b565b915060208084013567ffffffffffffffff81111561261657600080fd5b8401601f8101861361262757600080fd5b80356126356123c282612346565b81815260059190911b8201830190838101908883111561265457600080fd5b928401925b828410156124045761266a846125cc565b82529284019290840190612659565b6020808252825182820181905260009190848201906040850190845b818110156122f357835160ff1683529284019291840191600101612695565b600080604083850312156126c757600080fd5b6126d08361225b565b946020939093013593505050565b6000806000606084860312156126f357600080fd5b6126fc8461225b565b925061270a602085016125cc565b9150604084013590509250925092565b6000806040838503121561272d57600080fd5b50508035926020909101359150565b634e487b7160e01b600052602160045260246000fd5b6020808252818101527f4f776e61626c653a2063616c6c6572206973206e6f7420746865206f776e6572604082015260600190565b602080825260149082015273139bdd0818481d985b1a590818dbdb9d1c9858dd60621b604082015260600190565b634e487b7160e01b600052603260045260246000fd5b6000602082840312156127dd57600080fd5b81516124ec8161226f565b634e487b7160e01b600052601160045260246000fd5b600060018201612810576128106127e8565b5060010190565b6000821982111561282a5761282a6127e8565b500190565b6000816000190483118215151615612849576128496127e8565b500290565b600082821015612860576128606127e8565b500390565b60008261288257634e487b7160e01b600052601260045260246000fd5b500490565b634e487b7160e01b600052603160045260246000fd5b600181811c908216806128b157607f821691505b6020821081036128d157634e487b7160e01b600052602260045260246000fd5b5091905056fea2646970667358221220f555807e3db0ce1a0420fa4264ca0b285d8040419528903700bc45cda8386eb864736f6c634300080d0033",
    "linkReferences": {},
    "deployedLinkReferences": {}
}