{
    "_format": "hh-sol-artifact-1",
    "contractName": "Token",
    "sourceName": "contracts/Token.sol",
    "abi": [
        {
            "inputs": [
                {
                    "internalType": "address",
                    "name": "stakingContract_",
                    "type": "address"
                },
                {
                    "internalType": "string",
                    "name": "tokenName",
                    "type": "string"
                },
                {
                    "internalType": "string",
                    "name": "tokenSymbol",
                    "type": "string"
                }
            ],
            "stateMutability": "nonpayable",
            "type": "constructor"
        },
        {
            "anonymous": false,
            "inputs": [
                {
                    "indexed": true,
                    "internalType": "address",
                    "name": "owner",
                    "type": "address"
                },
                {
                    "indexed": true,
                    "internalType": "address",
                    "name": "spender",
                    "type": "address"
                },
                {
                    "indexed": false,
                    "internalType": "uint256",
                    "name": "value",
                    "type": "uint256"
                }
            ],
            "name": "Approval",
            "type": "event"
        },
        {
            "anonymous": false,
            "inputs": [
                {
                    "indexed": true,
                    "internalType": "address",
                    "name": "caller",
                    "type": "address"
                },
                {
                    "indexed": true,
                    "internalType": "address",
                    "name": "userAddress",
                    "type": "address"
                },
                {
                    "indexed": false,
                    "internalType": "uint256",
                    "name": "amount",
                    "type": "uint256"
                }
            ],
            "name": "ClaimTax",
            "type": "event"
        },
        {
            "anonymous": false,
            "inputs": [
                {
                    "indexed": true,
                    "internalType": "address",
                    "name": "userAddress",
                    "type": "address"
                },
                {
                    "indexed": false,
                    "internalType": "uint256",
                    "name": "amount",
                    "type": "uint256"
                }
            ],
            "name": "Deposit",
            "type": "event"
        },
        {
            "anonymous": false,
            "inputs": [
                {
                    "indexed": true,
                    "internalType": "address",
                    "name": "caller",
                    "type": "address"
                },
                {
                    "indexed": true,
                    "internalType": "address",
                    "name": "userAddress",
                    "type": "address"
                },
                {
                    "indexed": false,
                    "internalType": "uint256",
                    "name": "amount",
                    "type": "uint256"
                }
            ],
            "name": "DepositFor",
            "type": "event"
        },
        {
            "anonymous": false,
            "inputs": [
                {
                    "indexed": true,
                    "internalType": "address",
                    "name": "from",
                    "type": "address"
                },
                {
                    "indexed": true,
                    "internalType": "address",
                    "name": "to",
                    "type": "address"
                },
                {
                    "indexed": false,
                    "internalType": "uint256",
                    "name": "amount",
                    "type": "uint256"
                }
            ],
            "name": "InternalTransfer",
            "type": "event"
        },
        {
            "anonymous": false,
            "inputs": [
                {
                    "indexed": true,
                    "internalType": "address",
                    "name": "previousOwner",
                    "type": "address"
                },
                {
                    "indexed": true,
                    "internalType": "address",
                    "name": "newOwner",
                    "type": "address"
                }
            ],
            "name": "OwnershipTransferred",
            "type": "event"
        },
        {
            "anonymous": false,
            "inputs": [
                {
                    "indexed": true,
                    "internalType": "address",
                    "name": "caller",
                    "type": "address"
                },
                {
                    "indexed": true,
                    "internalType": "address",
                    "name": "userAddress",
                    "type": "address"
                },
                {
                    "indexed": false,
                    "internalType": "uint256",
                    "name": "amount",
                    "type": "uint256"
                },
                {
                    "indexed": false,
                    "internalType": "uint256",
                    "name": "tax",
                    "type": "uint256"
                }
            ],
            "name": "Spend",
            "type": "event"
        },
        {
            "anonymous": false,
            "inputs": [
                {
                    "indexed": true,
                    "internalType": "address",
                    "name": "from",
                    "type": "address"
                },
                {
                    "indexed": true,
                    "internalType": "address",
                    "name": "to",
                    "type": "address"
                },
                {
                    "indexed": false,
                    "internalType": "uint256",
                    "name": "value",
                    "type": "uint256"
                }
            ],
            "name": "Transfer",
            "type": "event"
        },
        {
            "anonymous": false,
            "inputs": [
                {
                    "indexed": true,
                    "internalType": "address",
                    "name": "userAddress",
                    "type": "address"
                },
                {
                    "indexed": false,
                    "internalType": "uint256",
                    "name": "amount",
                    "type": "uint256"
                },
                {
                    "indexed": false,
                    "internalType": "uint256",
                    "name": "tax",
                    "type": "uint256"
                }
            ],
            "name": "Withdraw",
            "type": "event"
        },
        {
            "inputs": [],
            "name": "MAX_SUPPLY",
            "outputs": [
                {
                    "internalType": "uint256",
                    "name": "",
                    "type": "uint256"
                }
            ],
            "stateMutability": "view",
            "type": "function"
        },
        {
            "inputs": [],
            "name": "MAX_TAX_PERCENT",
            "outputs": [
                {
                    "internalType": "uint256",
                    "name": "",
                    "type": "uint256"
                }
            ],
            "stateMutability": "view",
            "type": "function"
        },
        {
            "inputs": [],
            "name": "activeTaxCollectedAmount",
            "outputs": [
                {
                    "internalType": "uint256",
                    "name": "",
                    "type": "uint256"
                }
            ],
            "stateMutability": "view",
            "type": "function"
        },
        {
            "inputs": [
                {
                    "internalType": "address",
                    "name": "owner",
                    "type": "address"
                },
                {
                    "internalType": "address",
                    "name": "spender",
                    "type": "address"
                }
            ],
            "name": "allowance",
            "outputs": [
                {
                    "internalType": "uint256",
                    "name": "",
                    "type": "uint256"
                }
            ],
            "stateMutability": "view",
            "type": "function"
        },
        {
            "inputs": [
                {
                    "internalType": "address",
                    "name": "spender",
                    "type": "address"
                },
                {
                    "internalType": "uint256",
                    "name": "amount",
                    "type": "uint256"
                }
            ],
            "name": "approve",
            "outputs": [
                {
                    "internalType": "bool",
                    "name": "",
                    "type": "bool"
                }
            ],
            "stateMutability": "nonpayable",
            "type": "function"
        },
        {
            "inputs": [
                {
                    "internalType": "address",
                    "name": "addressToAuth",
                    "type": "address"
                }
            ],
            "name": "authorise",
            "outputs": [],
            "stateMutability": "nonpayable",
            "type": "function"
        },
        {
            "inputs": [
                {
                    "internalType": "uint256",
                    "name": "",
                    "type": "uint256"
                }
            ],
            "name": "authorisedLog",
            "outputs": [
                {
                    "internalType": "address",
                    "name": "",
                    "type": "address"
                }
            ],
            "stateMutability": "view",
            "type": "function"
        },
        {
            "inputs": [
                {
                    "internalType": "address",
                    "name": "account",
                    "type": "address"
                }
            ],
            "name": "balanceOf",
            "outputs": [
                {
                    "internalType": "uint256",
                    "name": "",
                    "type": "uint256"
                }
            ],
            "stateMutability": "view",
            "type": "function"
        },
        {
            "inputs": [
                {
                    "internalType": "uint256",
                    "name": "amount",
                    "type": "uint256"
                }
            ],
            "name": "burn",
            "outputs": [],
            "stateMutability": "nonpayable",
            "type": "function"
        },
        {
            "inputs": [
                {
                    "internalType": "address",
                    "name": "user",
                    "type": "address"
                },
                {
                    "internalType": "uint256",
                    "name": "amount",
                    "type": "uint256"
                }
            ],
            "name": "claimTax",
            "outputs": [],
            "stateMutability": "nonpayable",
            "type": "function"
        },
        {
            "inputs": [],
            "name": "decimals",
            "outputs": [
                {
                    "internalType": "uint8",
                    "name": "",
                    "type": "uint8"
                }
            ],
            "stateMutability": "view",
            "type": "function"
        },
        {
            "inputs": [
                {
                    "internalType": "address",
                    "name": "spender",
                    "type": "address"
                },
                {
                    "internalType": "uint256",
                    "name": "subtractedValue",
                    "type": "uint256"
                }
            ],
            "name": "decreaseAllowance",
            "outputs": [
                {
                    "internalType": "bool",
                    "name": "",
                    "type": "bool"
                }
            ],
            "stateMutability": "nonpayable",
            "type": "function"
        },
        {
            "inputs": [
                {
                    "internalType": "address",
                    "name": "user",
                    "type": "address"
                },
                {
                    "internalType": "uint256",
                    "name": "amount",
                    "type": "uint256"
                }
            ],
            "name": "depositInGameBalance",
            "outputs": [],
            "stateMutability": "nonpayable",
            "type": "function"
        },
        {
            "inputs": [
                {
                    "internalType": "uint256",
                    "name": "amount",
                    "type": "uint256"
                }
            ],
            "name": "depositToken",
            "outputs": [],
            "stateMutability": "nonpayable",
            "type": "function"
        },
        {
            "inputs": [
                {
                    "internalType": "address",
                    "name": "",
                    "type": "address"
                }
            ],
            "name": "depositedAmount",
            "outputs": [
                {
                    "internalType": "uint256",
                    "name": "",
                    "type": "uint256"
                }
            ],
            "stateMutability": "view",
            "type": "function"
        },
        {
            "inputs": [
                {
                    "internalType": "address[]",
                    "name": "user",
                    "type": "address[]"
                },
                {
                    "internalType": "uint256[]",
                    "name": "amount",
                    "type": "uint256[]"
                }
            ],
            "name": "distributeInGameBalance",
            "outputs": [],
            "stateMutability": "nonpayable",
            "type": "function"
        },
        {
            "inputs": [
                {
                    "internalType": "address",
                    "name": "user",
                    "type": "address"
                }
            ],
            "name": "getUserBalance",
            "outputs": [
                {
                    "internalType": "uint256",
                    "name": "",
                    "type": "uint256"
                }
            ],
            "stateMutability": "view",
            "type": "function"
        },
        {
            "inputs": [
                {
                    "internalType": "address",
                    "name": "spender",
                    "type": "address"
                },
                {
                    "internalType": "uint256",
                    "name": "addedValue",
                    "type": "uint256"
                }
            ],
            "name": "increaseAllowance",
            "outputs": [
                {
                    "internalType": "bool",
                    "name": "",
                    "type": "bool"
                }
            ],
            "stateMutability": "nonpayable",
            "type": "function"
        },
        {
            "inputs": [],
            "name": "isDepositPaused",
            "outputs": [
                {
                    "internalType": "bool",
                    "name": "",
                    "type": "bool"
                }
            ],
            "stateMutability": "view",
            "type": "function"
        },
        {
            "inputs": [],
            "name": "isPaused",
            "outputs": [
                {
                    "internalType": "bool",
                    "name": "",
                    "type": "bool"
                }
            ],
            "stateMutability": "view",
            "type": "function"
        },
        {
            "inputs": [],
            "name": "isTransferPaused",
            "outputs": [
                {
                    "internalType": "bool",
                    "name": "",
                    "type": "bool"
                }
            ],
            "stateMutability": "view",
            "type": "function"
        },
        {
            "inputs": [],
            "name": "isWithdrawPaused",
            "outputs": [
                {
                    "internalType": "bool",
                    "name": "",
                    "type": "bool"
                }
            ],
            "stateMutability": "view",
            "type": "function"
        },
        {
            "inputs": [
                {
                    "internalType": "address",
                    "name": "user",
                    "type": "address"
                },
                {
                    "internalType": "uint256",
                    "name": "amount",
                    "type": "uint256"
                }
            ],
            "name": "mint",
            "outputs": [],
            "stateMutability": "nonpayable",
            "type": "function"
        },
        {
            "inputs": [],
            "name": "name",
            "outputs": [
                {
                    "internalType": "string",
                    "name": "",
                    "type": "string"
                }
            ],
            "stateMutability": "view",
            "type": "function"
        },
        {
            "inputs": [],
            "name": "owner",
            "outputs": [
                {
                    "internalType": "address",
                    "name": "",
                    "type": "address"
                }
            ],
            "stateMutability": "view",
            "type": "function"
        },
        {
            "inputs": [],
            "name": "renounceOwnership",
            "outputs": [],
            "stateMutability": "nonpayable",
            "type": "function"
        },
        {
            "inputs": [],
            "name": "rescue",
            "outputs": [],
            "stateMutability": "nonpayable",
            "type": "function"
        },
        {
            "inputs": [
                {
                    "internalType": "bool",
                    "name": "_pause",
                    "type": "bool"
                }
            ],
            "name": "setPauseDeposits",
            "outputs": [],
            "stateMutability": "nonpayable",
            "type": "function"
        },
        {
            "inputs": [
                {
                    "internalType": "bool",
                    "name": "_pause",
                    "type": "bool"
                }
            ],
            "name": "setPauseGameToken",
            "outputs": [],
            "stateMutability": "nonpayable",
            "type": "function"
        },
        {
            "inputs": [
                {
                    "internalType": "bool",
                    "name": "_pause",
                    "type": "bool"
                }
            ],
            "name": "setPauseTransfers",
            "outputs": [],
            "stateMutability": "nonpayable",
            "type": "function"
        },
        {
            "inputs": [
                {
                    "internalType": "bool",
                    "name": "_pause",
                    "type": "bool"
                }
            ],
            "name": "setPauseWithdraw",
            "outputs": [],
            "stateMutability": "nonpayable",
            "type": "function"
        },
        {
            "inputs": [
                {
                    "internalType": "uint256",
                    "name": "taxPercent",
                    "type": "uint256"
                }
            ],
            "name": "setSpendTaxPercent",
            "outputs": [],
            "stateMutability": "nonpayable",
            "type": "function"
        },
        {
            "inputs": [
                {
                    "internalType": "address",
                    "name": "stakingContract_",
                    "type": "address"
                }
            ],
            "name": "setStakingContract",
            "outputs": [],
            "stateMutability": "nonpayable",
            "type": "function"
        },
        {
            "inputs": [
                {
                    "internalType": "uint256",
                    "name": "taxPercent",
                    "type": "uint256"
                }
            ],
            "name": "setWithdrawTaxPercent",
            "outputs": [],
            "stateMutability": "nonpayable",
            "type": "function"
        },
        {
            "inputs": [
                {
                    "internalType": "address",
                    "name": "user",
                    "type": "address"
                },
                {
                    "internalType": "uint256",
                    "name": "amount",
                    "type": "uint256"
                }
            ],
            "name": "spendInGameBalance",
            "outputs": [],
            "stateMutability": "nonpayable",
            "type": "function"
        },
        {
            "inputs": [
                {
                    "internalType": "address[]",
                    "name": "user",
                    "type": "address[]"
                },
                {
                    "internalType": "uint256[]",
                    "name": "amount",
                    "type": "uint256[]"
                }
            ],
            "name": "spendInGameBalanceInBatch",
            "outputs": [],
            "stateMutability": "nonpayable",
            "type": "function"
        },
        {
            "inputs": [],
            "name": "spendTaxPercent",
            "outputs": [
                {
                    "internalType": "uint256",
                    "name": "",
                    "type": "uint256"
                }
            ],
            "stateMutability": "view",
            "type": "function"
        },
        {
            "inputs": [
                {
                    "internalType": "address",
                    "name": "",
                    "type": "address"
                }
            ],
            "name": "spentAmount",
            "outputs": [
                {
                    "internalType": "uint256",
                    "name": "",
                    "type": "uint256"
                }
            ],
            "stateMutability": "view",
            "type": "function"
        },
        {
            "inputs": [],
            "name": "stakingContract",
            "outputs": [
                {
                    "internalType": "contract IStaking",
                    "name": "",
                    "type": "address"
                }
            ],
            "stateMutability": "view",
            "type": "function"
        },
        {
            "inputs": [],
            "name": "symbol",
            "outputs": [
                {
                    "internalType": "string",
                    "name": "",
                    "type": "string"
                }
            ],
            "stateMutability": "view",
            "type": "function"
        },
        {
            "inputs": [],
            "name": "taxClaimedAmount",
            "outputs": [
                {
                    "internalType": "uint256",
                    "name": "",
                    "type": "uint256"
                }
            ],
            "stateMutability": "view",
            "type": "function"
        },
        {
            "inputs": [],
            "name": "totalSupply",
            "outputs": [
                {
                    "internalType": "uint256",
                    "name": "",
                    "type": "uint256"
                }
            ],
            "stateMutability": "view",
            "type": "function"
        },
        {
            "inputs": [
                {
                    "internalType": "address",
                    "name": "to",
                    "type": "address"
                },
                {
                    "internalType": "uint256",
                    "name": "amount",
                    "type": "uint256"
                }
            ],
            "name": "transfer",
            "outputs": [
                {
                    "internalType": "bool",
                    "name": "",
                    "type": "bool"
                }
            ],
            "stateMutability": "nonpayable",
            "type": "function"
        },
        {
            "inputs": [
                {
                    "internalType": "address",
                    "name": "from",
                    "type": "address"
                },
                {
                    "internalType": "address",
                    "name": "to",
                    "type": "address"
                },
                {
                    "internalType": "uint256",
                    "name": "amount",
                    "type": "uint256"
                }
            ],
            "name": "transferFrom",
            "outputs": [
                {
                    "internalType": "bool",
                    "name": "",
                    "type": "bool"
                }
            ],
            "stateMutability": "nonpayable",
            "type": "function"
        },
        {
            "inputs": [
                {
                    "internalType": "address",
                    "name": "to",
                    "type": "address"
                },
                {
                    "internalType": "uint256",
                    "name": "amount",
                    "type": "uint256"
                }
            ],
            "name": "transferInGameBalance",
            "outputs": [],
            "stateMutability": "nonpayable",
            "type": "function"
        },
        {
            "inputs": [
                {
                    "internalType": "address",
                    "name": "newOwner",
                    "type": "address"
                }
            ],
            "name": "transferOwnership",
            "outputs": [],
            "stateMutability": "nonpayable",
            "type": "function"
        },
        {
            "inputs": [
                {
                    "internalType": "address",
                    "name": "addressToUnAuth",
                    "type": "address"
                }
            ],
            "name": "unauthorise",
            "outputs": [],
            "stateMutability": "nonpayable",
            "type": "function"
        },
        {
            "inputs": [],
            "name": "withdrawTaxPercent",
            "outputs": [
                {
                    "internalType": "uint256",
                    "name": "",
                    "type": "uint256"
                }
            ],
            "stateMutability": "view",
            "type": "function"
        },
        {
            "inputs": [
                {
                    "internalType": "uint256",
                    "name": "amount",
                    "type": "uint256"
                }
            ],
            "name": "withdrawToken",
            "outputs": [],
            "stateMutability": "nonpayable",
            "type": "function"
        }
    ],
    "bytecode": "0x60806040523480156200001157600080fd5b506040516200260f3803806200260f833981016040819052620000349162000289565b8151829082906200004d90600390602085019062000116565b5080516200006390600490602084019062000116565b50506001600555506200007633620000c4565b5050336000908152600e60205260409020805460ff191660011790556019600a819055600955600780546001600160a01b03929092166001600160a01b03199092169190911790556200034f565b600680546001600160a01b038381166001600160a01b0319831681179093556040519116919082907f8be0079c531659141344cd1fd0a4f28419497f9722a3daafe3b4186f6b6457e090600090a35050565b828054620001249062000313565b90600052602060002090601f01602090048101928262000148576000855562000193565b82601f106200016357805160ff191683800117855562000193565b8280016001018555821562000193579182015b828111156200019357825182559160200191906001019062000176565b50620001a1929150620001a5565b5090565b5b80821115620001a15760008155600101620001a6565b634e487b7160e01b600052604160045260246000fd5b600082601f830112620001e457600080fd5b81516001600160401b0380821115620002015762000201620001bc565b604051601f8301601f19908116603f011681019082821181831017156200022c576200022c620001bc565b816040528381526020925086838588010111156200024957600080fd5b600091505b838210156200026d57858201830151818301840152908201906200024e565b838211156200027f5760008385830101525b9695505050505050565b6000806000606084860312156200029f57600080fd5b83516001600160a01b0381168114620002b757600080fd5b60208501519093506001600160401b0380821115620002d557600080fd5b620002e387838801620001d2565b93506040860151915080821115620002fa57600080fd5b506200030986828701620001d2565b9150509250925092565b600181811c908216806200032857607f821691505b6020821081036200034957634e487b7160e01b600052602260045260246000fd5b50919050565b6122b0806200035f6000396000f3fe608060405234801561001057600080fd5b50600436106102bb5760003560e01c8063715018a611610182578063b187bd26116100e9578063dd62ed3e116100a2578063ee99205c1161007c578063ee99205c14610634578063f2fde38b14610647578063f560d0b21461065a578063fcff8e9d1461066c57600080fd5b8063dd62ed3e146105d5578063e74d3a411461060e578063ec95ca001461062157600080fd5b8063b187bd261461057e578063b5b521bb1461058b578063b84e1c0814610594578063bcd54cf81461059c578063c69c2797146105af578063c82bc61d146105c257600080fd5b80639467ec041161013b5780639467ec041461051657806395d89b41146105295780639dd373b914610531578063a1a1ef4314610544578063a457c2d714610558578063a9059cbb1461056b57600080fd5b8063715018a6146104a75780638075654e146104af57806380833d78146104c257806383ac56ad146104d557806384b4efea146104e85780638da5cb5b146104f157600080fd5b80633466e4041161022657806350baa622116101df57806350baa622146104125780636215be771461042557806366e6c8af1461043857806367800b5f1461044b5780636d031d0a1461045e57806370a082311461047e57600080fd5b80633466e4041461039d57806339509351146103a657806340c10f19146103b957806342966c68146103cc57806347734892146103df5780634a4643f7146103f257600080fd5b806322f8388c1161027857806322f8388c1461033957806323b872dd1461034c5780632a68f2c21461035f578063313ce5671461037257806332cb6b0c1461038157806332dba96b1461038a57600080fd5b806306fdde03146102c0578063095ea7b3146102de5780630f06aa5f1461030157806318160ddd146103165780631fbe1979146103285780632041baf114610330575b600080fd5b6102c861067f565b6040516102d59190611d85565b60405180910390f35b6102f16102ec366004611df6565b610711565b60405190151581526020016102d5565b61031461030f366004611e20565b610729565b005b6002545b6040519081526020016102d5565b610314610776565b61031a600c5481565b610314610347366004611df6565b6107dc565b6102f161035a366004611e49565b610911565b61031461036d366004611df6565b610935565b604051601281526020016102d5565b61031a60085481565b610314610398366004611f5b565b61099e565b61031a600b5481565b6102f16103b4366004611df6565b610a9f565b6103146103c7366004611df6565b610ade565b6103146103da36600461201b565b610b3e565b61031a6103ed366004612034565b610b73565b61031a610400366004612034565b60106020526000908152604090205481565b61031461042036600461201b565b610c1b565b61031461043336600461201b565b610d8e565b610314610446366004612034565b610eb3565b600d546102f19062010000900460ff1681565b61031a61046c366004612034565b60116020526000908152604090205481565b61031a61048c366004612034565b6001600160a01b031660009081526020819052604090205490565b610314610f43565b6103146104bd366004611df6565b610f79565b6103146104d0366004612034565b6110c8565b6103146104e336600461201b565b611113565b61031a600a5481565b6006546001600160a01b03165b6040516001600160a01b0390911681526020016102d5565b610314610524366004611f5b565b611187565b6102c861127e565b61031461053f366004612034565b61128d565b600d546102f1906301000000900460ff1681565b6102f1610566366004611df6565b6112db565b6102f1610579366004611df6565b61136d565b600d546102f19060ff1681565b61031a60095481565b61031a606481565b6103146105aa36600461201b565b61137b565b6103146105bd366004611e20565b6113ef565b6104fe6105d036600461201b565b61142c565b61031a6105e336600461204f565b6001600160a01b03918216600090815260016020908152604080832093909416825291909152205490565b61031461061c366004611df6565b611456565b61031461062f366004611e20565b6115a2565b6007546104fe906001600160a01b031681565b610314610655366004612034565b6115ea565b600d546102f190610100900460ff1681565b61031461067a366004611e20565b611682565b60606003805461068e90612082565b80601f01602080910402602001604051908101604052809291908181526020018280546106ba90612082565b80156107075780601f106106dc57610100808354040283529160200191610707565b820191906000526020600020905b8154815290600101906020018083116106ea57829003601f168201915b5050505050905090565b60003361071f8185856116c8565b5060019392505050565b6006546001600160a01b0316331461075c5760405162461bcd60e51b8152600401610753906120bc565b60405180910390fd5b600d80549115156101000261ff0019909216919091179055565b6006546001600160a01b031633146107a05760405162461bcd60e51b8152600401610753906120bc565b6006546040516001600160a01b03909116904780156108fc02916000818181858888f193505050501580156107d9573d6000803e3d6000fd5b50565b336000908152600e602052604090205460ff1661080b5760405162461bcd60e51b8152600401610753906120f1565b60026005540361082d5760405162461bcd60e51b815260040161075390612119565b60026005558061083c83610b73565b101561085a5760405162461bcd60e51b815260040161075390612150565b600060646009548361086c9190612194565b61087691906121b3565b6001600160a01b0384166000908152601160205260408120805492935084929091906108a39084906121d5565b9250508190555080600c60008282546108bc91906121d5565b909155505060408051838152602081018390526001600160a01b0385169133917fed8cfe3600cacf009dc67354491d44da19a77f26a4aed42181ba6824ccb35d72910160405180910390a35050600160055550565b60003361091f8582856117ed565b61092a85858561187f565b506001949350505050565b336000908152600e602052604090205460ff166109645760405162461bcd60e51b8152600401610753906120f1565b6002600554036109865760405162461bcd60e51b815260040161075390612119565b60026005556109958282611a4d565b50506001600555565b336000908152600e602052604090205460ff166109cd5760405162461bcd60e51b8152600401610753906120f1565b6002600554036109ef5760405162461bcd60e51b815260040161075390612119565b60026005558051825114610a3b5760405162461bcd60e51b815260206004820152601360248201527215dc9bdb99c8185c9c985e5cc81c185cdcd959606a1b6044820152606401610753565b60005b8251811015610a9557610a83838281518110610a5c57610a5c6121ed565b6020026020010151838381518110610a7657610a766121ed565b6020026020010151611a4d565b80610a8d81612203565b915050610a3e565b5050600160055550565b3360008181526001602090815260408083206001600160a01b038716845290915281205490919061071f9082908690610ad99087906121d5565b6116c8565b336000908152600e602052604090205460ff16610b0d5760405162461bcd60e51b8152600401610753906120f1565b600260055403610b2f5760405162461bcd60e51b815260040161075390612119565b60026005556109958282611b15565b6006546001600160a01b03163314610b685760405162461bcd60e51b8152600401610753906120bc565b6107d9335b82611bed565b6001600160a01b038181166000818152601160209081526040808320546010909252808320546007549151630af3c58760e21b8152600481019590955292949193911690632bcf161c90602401602060405180830381865afa158015610bdd573d6000803e3d6000fd5b505050506040513d601f19601f82011682018060405250810190610c01919061221c565b610c0b91906121d5565b610c159190612235565b92915050565b600260055403610c3d5760405162461bcd60e51b815260040161075390612119565b6002600555600d5460ff1615610c655760405162461bcd60e51b81526004016107539061224c565b600d5462010000900460ff1615610cb05760405162461bcd60e51b815260206004820152600f60248201526e15da5d1a191c985dc814185d5cd959608a1b6044820152606401610753565b80610cba33610b73565b1015610cd85760405162461bcd60e51b815260040161075390612150565b60006064600a5483610cea9190612194565b610cf491906121b3565b33600090815260116020526040812080549293508492909190610d189084906121d5565b9250508190555080600c6000828254610d3191906121d5565b90915550610d4a905033610d458385612235565b611b15565b604080518381526020810183905233917ff279e6a1f5e320cca91135676d9cb6e44ca8a08c0b88342bcdb1144f6511b568910160405180910390a250506001600555565b600260055403610db05760405162461bcd60e51b815260040161075390612119565b6002600555600d5460ff1615610dd85760405162461bcd60e51b81526004016107539061224c565b600d54610100900460ff1615610e215760405162461bcd60e51b815260206004820152600e60248201526d11195c1bdcda5d0814185d5cd95960921b6044820152606401610753565b80610e2b3361048c565b1015610e495760405162461bcd60e51b815260040161075390612150565b610e5233610b6d565b3360009081526010602052604081208054839290610e719084906121d5565b909155505060405181815233907fe1fffcc4923d04b559f4d29a8bfc6cda04eb5b0d3c460751c2402c5c5cc9109c9060200160405180910390a2506001600555565b6006546001600160a01b03163314610edd5760405162461bcd60e51b8152600401610753906120bc565b6001600160a01b03166000818152600e60205260408120805460ff19166001908117909155600f805491820181559091527f8d1108e10bcb7c27dddfc02ed9d693a074039d026cf4ea4240b40f7d581ac8020180546001600160a01b0319169091179055565b6006546001600160a01b03163314610f6d5760405162461bcd60e51b8152600401610753906120bc565b610f776000611d33565b565b336000908152600e602052604090205460ff16610fa85760405162461bcd60e51b8152600401610753906120f1565b600260055403610fca5760405162461bcd60e51b815260040161075390612119565b6002600555600c548111156110215760405162461bcd60e51b815260206004820152601860248201527f496e73756666696369656e64207461782062616c616e636500000000000000006044820152606401610753565b80600c60008282546110339190612235565b90915550506001600160a01b038216600090815260106020526040812080548392906110609084906121d5565b9250508190555080600b600082825461107991906121d5565b90915550506040518181526001600160a01b0383169033907f1ad2283cc65e3e122c0a874bda25abbd844e8ae88fa9512b4849ee1b58b6570d906020015b60405180910390a350506001600555565b6006546001600160a01b031633146110f25760405162461bcd60e51b8152600401610753906120bc565b6001600160a01b03166000908152600e60205260409020805460ff19169055565b6006546001600160a01b0316331461113d5760405162461bcd60e51b8152600401610753906120bc565b606481106111825760405162461bcd60e51b815260206004820152601260248201527115dc9bdb99c81d985b1d59481c185cdcd95960721b6044820152606401610753565b600955565b336000908152600e602052604090205460ff166111b65760405162461bcd60e51b8152600401610753906120f1565b6002600554036111d85760405162461bcd60e51b815260040161075390612119565b600260055580518251146112245760405162461bcd60e51b815260206004820152601360248201527215dc9bdb99c8185c9c985e5cc81c185cdcd959606a1b6044820152606401610753565b60005b8251811015610a955761126c838281518110611245576112456121ed565b602002602001015183838151811061125f5761125f6121ed565b60200260200101516107dc565b8061127681612203565b915050611227565b60606004805461068e90612082565b6006546001600160a01b031633146112b75760405162461bcd60e51b8152600401610753906120bc565b600780546001600160a01b0319166001600160a01b0383161790556107d981610eb3565b3360008181526001602090815260408083206001600160a01b0387168452909152812054909190838110156113605760405162461bcd60e51b815260206004820152602560248201527f45524332303a2064656372656173656420616c6c6f77616e63652062656c6f77604482015264207a65726f60d81b6064820152608401610753565b61092a82868684036116c8565b60003361071f81858561187f565b6006546001600160a01b031633146113a55760405162461bcd60e51b8152600401610753906120bc565b606481106113ea5760405162461bcd60e51b815260206004820152601260248201527115dc9bdb99c81d985b1d59481c185cdcd95960721b6044820152606401610753565b600a55565b6006546001600160a01b031633146114195760405162461bcd60e51b8152600401610753906120bc565b600d805460ff1916911515919091179055565b600f818154811061143c57600080fd5b6000918252602090912001546001600160a01b0316905081565b6002600554036114785760405162461bcd60e51b815260040161075390612119565b6002600555600d5460ff16156114a05760405162461bcd60e51b81526004016107539061224c565b600d546301000000900460ff16156114ec5760405162461bcd60e51b815260206004820152600f60248201526e151c985b9cd9995c8814185d5cd959608a1b6044820152606401610753565b806114f633610b73565b10156115145760405162461bcd60e51b815260040161075390612150565b33600090815260116020526040812080548392906115339084906121d5565b90915550506001600160a01b038216600090815260106020526040812080548392906115609084906121d5565b90915550506040518181526001600160a01b0383169033907fe2080c8fc8d86c864d8dc081fadaebf2be7191086615e786f954420f13ed122a906020016110b7565b6006546001600160a01b031633146115cc5760405162461bcd60e51b8152600401610753906120bc565b600d805491151563010000000263ff00000019909216919091179055565b6006546001600160a01b031633146116145760405162461bcd60e51b8152600401610753906120bc565b6001600160a01b0381166116795760405162461bcd60e51b815260206004820152602660248201527f4f776e61626c653a206e6577206f776e657220697320746865207a65726f206160448201526564647265737360d01b6064820152608401610753565b6107d981611d33565b6006546001600160a01b031633146116ac5760405162461bcd60e51b8152600401610753906120bc565b600d8054911515620100000262ff000019909216919091179055565b6001600160a01b03831661172a5760405162461bcd60e51b8152602060048201526024808201527f45524332303a20617070726f76652066726f6d20746865207a65726f206164646044820152637265737360e01b6064820152608401610753565b6001600160a01b03821661178b5760405162461bcd60e51b815260206004820152602260248201527f45524332303a20617070726f766520746f20746865207a65726f206164647265604482015261737360f01b6064820152608401610753565b6001600160a01b0383811660008181526001602090815260408083209487168084529482529182902085905590518481527f8c5be1e5ebec7d5bd14f71427d1e84f3dd0314c0f7b2291e5b200ac8c7c3b92591015b60405180910390a3505050565b6001600160a01b038381166000908152600160209081526040808320938616835292905220546000198114611879578181101561186c5760405162461bcd60e51b815260206004820152601d60248201527f45524332303a20696e73756666696369656e7420616c6c6f77616e63650000006044820152606401610753565b61187984848484036116c8565b50505050565b6001600160a01b0383166118e35760405162461bcd60e51b815260206004820152602560248201527f45524332303a207472616e736665722066726f6d20746865207a65726f206164604482015264647265737360d81b6064820152608401610753565b6001600160a01b0382166119455760405162461bcd60e51b815260206004820152602360248201527f45524332303a207472616e7366657220746f20746865207a65726f206164647260448201526265737360e81b6064820152608401610753565b6001600160a01b038316600090815260208190526040902054818110156119bd5760405162461bcd60e51b815260206004820152602660248201527f45524332303a207472616e7366657220616d6f756e7420657863656564732062604482015265616c616e636560d01b6064820152608401610753565b6001600160a01b038085166000908152602081905260408082208585039055918516815290812080548492906119f49084906121d5565b92505081905550826001600160a01b0316846001600160a01b03167fddf252ad1be2c89b69c2b068fc378daa952ba7f163c4a11628f55a4df523b3ef84604051611a4091815260200190565b60405180910390a3611879565b6001600160a01b038216611aa35760405162461bcd60e51b815260206004820152601860248201527f43616e6e6f742073656e6420746f2030206164647265737300000000000000006044820152606401610753565b6001600160a01b03821660009081526010602052604081208054839290611acb9084906121d5565b90915550506040518181526001600160a01b0383169033907f6b64443f4cc3aac2df66fff76675a29dc321ce9efebffb006f528db1690179a0906020015b60405180910390a35050565b6001600160a01b038216611b6b5760405162461bcd60e51b815260206004820152601f60248201527f45524332303a206d696e7420746f20746865207a65726f2061646472657373006044820152606401610753565b8060026000828254611b7d91906121d5565b90915550506001600160a01b03821660009081526020819052604081208054839290611baa9084906121d5565b90915550506040518181526001600160a01b038316906000907fddf252ad1be2c89b69c2b068fc378daa952ba7f163c4a11628f55a4df523b3ef90602001611b09565b6001600160a01b038216611c4d5760405162461bcd60e51b815260206004820152602160248201527f45524332303a206275726e2066726f6d20746865207a65726f206164647265736044820152607360f81b6064820152608401610753565b6001600160a01b03821660009081526020819052604090205481811015611cc15760405162461bcd60e51b815260206004820152602260248201527f45524332303a206275726e20616d6f756e7420657863656564732062616c616e604482015261636560f01b6064820152608401610753565b6001600160a01b0383166000908152602081905260408120838303905560028054849290611cf0908490612235565b90915550506040518281526000906001600160a01b038516907fddf252ad1be2c89b69c2b068fc378daa952ba7f163c4a11628f55a4df523b3ef906020016117e0565b600680546001600160a01b038381166001600160a01b0319831681179093556040519116919082907f8be0079c531659141344cd1fd0a4f28419497f9722a3daafe3b4186f6b6457e090600090a35050565b600060208083528351808285015260005b81811015611db257858101830151858201604001528201611d96565b81811115611dc4576000604083870101525b50601f01601f1916929092016040019392505050565b80356001600160a01b0381168114611df157600080fd5b919050565b60008060408385031215611e0957600080fd5b611e1283611dda565b946020939093013593505050565b600060208284031215611e3257600080fd5b81358015158114611e4257600080fd5b9392505050565b600080600060608486031215611e5e57600080fd5b611e6784611dda565b9250611e7560208501611dda565b9150604084013590509250925092565b634e487b7160e01b600052604160045260246000fd5b604051601f8201601f1916810167ffffffffffffffff81118282101715611ec457611ec4611e85565b604052919050565b600067ffffffffffffffff821115611ee657611ee6611e85565b5060051b60200190565b600082601f830112611f0157600080fd5b81356020611f16611f1183611ecc565b611e9b565b82815260059290921b84018101918181019086841115611f3557600080fd5b8286015b84811015611f505780358352918301918301611f39565b509695505050505050565b60008060408385031215611f6e57600080fd5b823567ffffffffffffffff80821115611f8657600080fd5b818501915085601f830112611f9a57600080fd5b81356020611faa611f1183611ecc565b82815260059290921b84018101918181019089841115611fc957600080fd5b948201945b83861015611fee57611fdf86611dda565b82529482019490820190611fce565b9650508601359250508082111561200457600080fd5b5061201185828601611ef0565b9150509250929050565b60006020828403121561202d57600080fd5b5035919050565b60006020828403121561204657600080fd5b611e4282611dda565b6000806040838503121561206257600080fd5b61206b83611dda565b915061207960208401611dda565b90509250929050565b600181811c9082168061209657607f821691505b6020821081036120b657634e487b7160e01b600052602260045260246000fd5b50919050565b6020808252818101527f4f776e61626c653a2063616c6c6572206973206e6f7420746865206f776e6572604082015260600190565b6020808252600e908201526d139bdd08105d5d1a1bdc9a5cd95960921b604082015260600190565b6020808252601f908201527f5265656e7472616e637947756172643a207265656e7472616e742063616c6c00604082015260600190565b602080825260149082015273496e73756666696369656e742062616c616e636560601b604082015260600190565b634e487b7160e01b600052601160045260246000fd5b60008160001904831182151516156121ae576121ae61217e565b500290565b6000826121d057634e487b7160e01b600052601260045260246000fd5b500490565b600082198211156121e8576121e861217e565b500190565b634e487b7160e01b600052603260045260246000fd5b6000600182016122155761221561217e565b5060010190565b60006020828403121561222e57600080fd5b5051919050565b6000828210156122475761224761217e565b500390565b602080825260149082015273151bdad95b8819d85b59481a5cc81c185d5cd95960621b60408201526060019056fea2646970667358221220505c05c1771b4f58c4fc01ab1c124ec4af4c30e68911c1ca51c58cf06918140a64736f6c634300080d0033",
    "linkReferences": {},
    "deployedLinkReferences": {}
}