{
    "_format": "hh-sol-artifact-1",
    "contractName": "MintingRouter",
    "sourceName": "contracts/MintingRouter.sol",
    "abi": [
        {
            "inputs": [
                {
                    "internalType": "contract INFT",
                    "name": "_nftContract",
                    "type": "address"
                },
                {
                    "internalType": "string",
                    "name": "tokenName",
                    "type": "string"
                },
                {
                    "internalType": "string",
                    "name": "version",
                    "type": "string"
                }
            ],
            "stateMutability": "nonpayable",
            "type": "constructor"
        },
        {
            "anonymous": false,
            "inputs": [
                {
                    "indexed": true,
                    "internalType": "address",
                    "name": "previousOwner",
                    "type": "address"
                },
                {
                    "indexed": true,
                    "internalType": "address",
                    "name": "newOwner",
                    "type": "address"
                }
            ],
            "name": "OwnershipTransferred",
            "type": "event"
        },
        {
            "inputs": [],
            "name": "DOMAIN_SEPARATOR",
            "outputs": [
                {
                    "internalType": "bytes32",
                    "name": "",
                    "type": "bytes32"
                }
            ],
            "stateMutability": "view",
            "type": "function"
        },
        {
            "inputs": [],
            "name": "MINTER_TYPEHASH",
            "outputs": [
                {
                    "internalType": "bytes32",
                    "name": "",
                    "type": "bytes32"
                }
            ],
            "stateMutability": "view",
            "type": "function"
        },
        {
            "inputs": [
                {
                    "internalType": "address",
                    "name": "minter",
                    "type": "address"
                }
            ],
            "name": "allowedTokenCount",
            "outputs": [
                {
                    "internalType": "uint256",
                    "name": "",
                    "type": "uint256"
                }
            ],
            "stateMutability": "view",
            "type": "function"
        },
        {
            "inputs": [
                {
                    "internalType": "uint256",
                    "name": "price",
                    "type": "uint256"
                },
                {
                    "internalType": "uint256",
                    "name": "totalAmount",
                    "type": "uint256"
                },
                {
                    "internalType": "uint8",
                    "name": "limitAmountPerWallet",
                    "type": "uint8"
                },
                {
                    "internalType": "uint256",
                    "name": "maxAmountPerMint",
                    "type": "uint256"
                }
            ],
            "name": "changeSaleRoundParams",
            "outputs": [],
            "stateMutability": "nonpayable",
            "type": "function"
        },
        {
            "inputs": [],
            "name": "currentSaleIndex",
            "outputs": [
                {
                    "internalType": "uint256",
                    "name": "",
                    "type": "uint256"
                }
            ],
            "stateMutability": "view",
            "type": "function"
        },
        {
            "inputs": [],
            "name": "disableSaleRound",
            "outputs": [],
            "stateMutability": "nonpayable",
            "type": "function"
        },
        {
            "inputs": [],
            "name": "enableSaleRound",
            "outputs": [],
            "stateMutability": "nonpayable",
            "type": "function"
        },
        {
            "inputs": [
                {
                    "internalType": "uint256",
                    "name": "",
                    "type": "uint256"
                }
            ],
            "name": "mintedAmountPerRound",
            "outputs": [
                {
                    "internalType": "uint256",
                    "name": "",
                    "type": "uint256"
                }
            ],
            "stateMutability": "view",
            "type": "function"
        },
        {
            "inputs": [],
            "name": "owner",
            "outputs": [
                {
                    "internalType": "address",
                    "name": "",
                    "type": "address"
                }
            ],
            "stateMutability": "view",
            "type": "function"
        },
        {
            "inputs": [
                {
                    "internalType": "address",
                    "name": "recipient",
                    "type": "address"
                },
                {
                    "internalType": "uint256",
                    "name": "quantity",
                    "type": "uint256"
                }
            ],
            "name": "publicMint",
            "outputs": [],
            "stateMutability": "payable",
            "type": "function"
        },
        {
            "inputs": [],
            "name": "renounceOwnership",
            "outputs": [],
            "stateMutability": "nonpayable",
            "type": "function"
        },
        {
            "inputs": [],
            "name": "saleRound",
            "outputs": [
                {
                    "internalType": "enum MintingRouter.SaleRoundType",
                    "name": "saleType",
                    "type": "uint8"
                },
                {
                    "internalType": "uint256",
                    "name": "price",
                    "type": "uint256"
                },
                {
                    "internalType": "uint256",
                    "name": "totalAmount",
                    "type": "uint256"
                },
                {
                    "internalType": "uint256",
                    "name": "limitAmountPerWallet",
                    "type": "uint256"
                },
                {
                    "internalType": "uint256",
                    "name": "maxAmountPerMint",
                    "type": "uint256"
                },
                {
                    "internalType": "bool",
                    "name": "enabled",
                    "type": "bool"
                }
            ],
            "stateMutability": "view",
            "type": "function"
        },
        {
            "inputs": [
                {
                    "internalType": "enum MintingRouter.SaleRoundType",
                    "name": "saleType",
                    "type": "uint8"
                },
                {
                    "internalType": "uint256",
                    "name": "price",
                    "type": "uint256"
                },
                {
                    "internalType": "uint256",
                    "name": "totalAmount",
                    "type": "uint256"
                },
                {
                    "internalType": "uint256",
                    "name": "limitAmountPerWallet",
                    "type": "uint256"
                },
                {
                    "internalType": "uint256",
                    "name": "maxAmountPerMint",
                    "type": "uint256"
                }
            ],
            "name": "setSaleRound",
            "outputs": [],
            "stateMutability": "nonpayable",
            "type": "function"
        },
        {
            "inputs": [
                {
                    "internalType": "address",
                    "name": "signer",
                    "type": "address"
                }
            ],
            "name": "setWhitelistSigningAddress",
            "outputs": [],
            "stateMutability": "nonpayable",
            "type": "function"
        },
        {
            "inputs": [],
            "name": "tokensLeft",
            "outputs": [
                {
                    "internalType": "uint256",
                    "name": "",
                    "type": "uint256"
                }
            ],
            "stateMutability": "view",
            "type": "function"
        },
        {
            "inputs": [],
            "name": "totalMintedAmount",
            "outputs": [
                {
                    "internalType": "uint256",
                    "name": "",
                    "type": "uint256"
                }
            ],
            "stateMutability": "view",
            "type": "function"
        },
        {
            "inputs": [
                {
                    "internalType": "address",
                    "name": "newOwner",
                    "type": "address"
                }
            ],
            "name": "transferOwnership",
            "outputs": [],
            "stateMutability": "nonpayable",
            "type": "function"
        },
        {
            "inputs": [
                {
                    "internalType": "address",
                    "name": "recipient",
                    "type": "address"
                },
                {
                    "internalType": "uint256",
                    "name": "quantity",
                    "type": "uint256"
                },
                {
                    "internalType": "bytes",
                    "name": "signature",
                    "type": "bytes"
                }
            ],
            "name": "whitelistMint",
            "outputs": [],
            "stateMutability": "payable",
            "type": "function"
        },
        {
            "inputs": [],
            "name": "withdraw",
            "outputs": [
                {
                    "internalType": "bool",
                    "name": "",
                    "type": "bool"
                }
            ],
            "stateMutability": "nonpayable",
            "type": "function"
        }
    ],
    "bytecode": "0x6080604052600180546001600160a01b03191690553480156200002157600080fd5b5060405162001903380380620019038339810160408190526200004491620001fb565b81816200005133620000f8565b8151602080840191909120825183830120604080517f8b73c3c69bb8fe3d512ecc4cf759cc79239f7b179b0ffacaa9a75d522b39400f9481019490945283019190915260608201524660808201523060a082015260c00160408051808303601f190181529190528051602090910120600255505060016003555050600480546001600160a01b0319166001600160a01b0392909216919091179055600019600b5562000297565b600080546001600160a01b038381166001600160a01b0319831681178455604051919092169283917f8be0079c531659141344cd1fd0a4f28419497f9722a3daafe3b4186f6b6457e09190a35050565b600082601f83011262000159578081fd5b81516001600160401b038082111562000176576200017662000281565b604051601f8301601f19908116603f01168101908282118183101715620001a157620001a162000281565b81604052838152602092508683858801011115620001bd578485fd5b8491505b83821015620001e05785820183015181830184015290820190620001c1565b83821115620001f157848385830101525b9695505050505050565b60008060006060848603121562000210578283fd5b83516001600160a01b038116811462000227578384fd5b60208501519093506001600160401b038082111562000244578384fd5b620002528783880162000148565b9350604086015191508082111562000268578283fd5b50620002778682870162000148565b9150509250925092565b634e487b7160e01b600052604160045260246000fd5b61165c80620002a76000396000f3fe6080604052600436106101145760003560e01c80638da5cb5b116100a0578063ce6df2b911610064578063ce6df2b9146102b1578063e4e9275a146102c4578063eb9bbe6614610307578063f2fde38b14610327578063fa4d280c1461034757600080fd5b80638da5cb5b14610229578063b31f8f9314610251578063bd14c3d014610266578063c1d691681461027c578063cd7708331461029157600080fd5b80633ccfd60b116100e75780633ccfd60b146101a65780634d4a6be8146101cb5780635ed222e3146101eb5780636f865e6f146101fe578063715018a61461021457600080fd5b80631263a4601461011957806327c51a06146101305780633644e515146101705780633924cf7314610186575b600080fd5b34801561012557600080fd5b5061012e61037b565b005b34801561013c57600080fd5b5061015d61014b3660046114e5565b600d6020526000908152604090205481565b6040519081526020015b60405180910390f35b34801561017c57600080fd5b5061015d60025481565b34801561019257600080fd5b5061012e6101a136600461149f565b610410565b3480156101b257600080fd5b506101bb610533565b6040519015158152602001610167565b3480156101d757600080fd5b5061015d6101e63660046113d3565b610596565b61012e6101f936600461141d565b61069f565b34801561020a57600080fd5b5061015d600c5481565b34801561022057600080fd5b5061012e610939565b34801561023557600080fd5b506000546040516001600160a01b039091168152602001610167565b34801561025d57600080fd5b5061015d61096f565b34801561027257600080fd5b5061015d600b5481565b34801561028857600080fd5b5061012e6109b3565b34801561029d57600080fd5b5061012e6102ac3660046113d3565b610a40565b61012e6102bf3660046113f4565b610a8b565b3480156102d057600080fd5b50600554600654600754600854600954600a546102f59560ff90811695949392911686565b60405161016796959493929190611540565b34801561031357600080fd5b5061012e6103223660046114fd565b610b7c565b34801561033357600080fd5b5061012e6103423660046113d3565b610bbd565b34801561035357600080fd5b5061015d7f68e83002b91b0fd96d4df3566b5122221117e3ec6c2468fda594f6491f89b1c981565b6000546001600160a01b031633146103ae5760405162461bcd60e51b81526004016103a59061158d565b60405180910390fd5b600a5460ff16156104015760405162461bcd60e51b815260206004820152601e60248201527f53616c6520726f756e642077617320616c726561647920656e61626c6564000060448201526064016103a5565b600a805460ff19166001179055565b6000546001600160a01b0316331461043a5760405162461bcd60e51b81526004016103a59061158d565b600a5460ff16156104b35760405162461bcd60e51b815260206004820152603960248201527f43616e27742073657420612073616c6520726f756e64207768656e206375727260448201527f656e742073616c6520726f756e6420697320656e61626c65640000000000000060648201526084016103a5565b600019600b5414156104c9576000600b556104e2565b6001600b60008282546104dc91906115c2565b90915550505b60068490556007839055600882905560098190556005805486919060ff19166001838181111561052257634e487b7160e01b600052602160045260246000fd5b0217905550506000600c5550505050565b600080546001600160a01b0316331461055e5760405162461bcd60e51b81526004016103a59061158d565b6040514790339082156108fc029083906000818181858888f1935050505015801561058d573d6000803e3d6000fd5b50600191505090565b600b546000908152600e602090815260408083206001600160a01b03851684529091528120546008548291106105cd576000610600565b600b546000908152600e602090815260408083206001600160a01b038716845290915290205460085461060091906115f9565b600b546000908152600d6020526040812054600754929350909111610626576000610645565b600b546000908152600d602052604090205460075461064591906115f9565b60075460085491925060009161065b91906115c2565b141561066c57506000199392505050565b60085461067a579392505050565b600754610688575092915050565b8082106106955780610697565b815b949350505050565b600154829082906001600160a01b03166107165760405162461bcd60e51b815260206004820152603260248201527f57686974656c697374206e6f7420656e61626c65643b20706c656173652073656044820152713a103a343290383934bb30ba329035b2bc9760711b60648201526084016103a5565b600254604080517f68e83002b91b0fd96d4df3566b5122221117e3ec6c2468fda594f6491f89b1c960208201523391810191909152600091906060016040516020818303038152906040528051906020012060405160200161078f92919061190160f01b81526002810192909252602282015260420190565b60405160208183030381529060405280519060200120905060006107eb84848080601f0160208091040260200160405190810160405280939291908181526020018383808284376000920191909152508693925050610c559050565b6001549091506001600160a01b0380831691161461083f5760405162461bcd60e51b8152602060048201526011602482015270496e76616c6964207369676e617475726560781b60448201526064016103a5565b600260035414156108925760405162461bcd60e51b815260206004820152601f60248201527f5265656e7472616e637947756172643a207265656e7472616e742063616c6c0060448201526064016103a5565b6002600355600060055460ff1660018111156108be57634e487b7160e01b600052602160045260246000fd5b1461091f5760405162461bcd60e51b815260206004820152602b60248201527f4163746976652073616c6520726f756e64206973206e6f74206120776869746560448201526a3634b9ba103937bab7321760a91b60648201526084016103a5565b61092a348989610c79565b50506001600355505050505050565b6000546001600160a01b031633146109635760405162461bcd60e51b81526004016103a59061158d565b61096d6000610fd0565b565b600b546000908152600d60205260408120546007541161098f5750600090565b600b546000908152600d60205260409020546007546109ae91906115f9565b905090565b6000546001600160a01b031633146109dd5760405162461bcd60e51b81526004016103a59061158d565b600a5460ff161515600114610a345760405162461bcd60e51b815260206004820152601f60248201527f53616c6520726f756e642077617320616c72656164792064697361626c65640060448201526064016103a5565b600a805460ff19169055565b6000546001600160a01b03163314610a6a5760405162461bcd60e51b81526004016103a59061158d565b600180546001600160a01b0319166001600160a01b03831617905550565b50565b60026003541415610ade5760405162461bcd60e51b815260206004820152601f60248201527f5265656e7472616e637947756172643a207265656e7472616e742063616c6c0060448201526064016103a5565b6002600355600160055460ff166001811115610b0a57634e487b7160e01b600052602160045260246000fd5b14610b685760405162461bcd60e51b815260206004820152602860248201527f4163746976652073616c6520726f756e64206973206e6f742061207075626c6960448201526731903937bab7321760c11b60648201526084016103a5565b610b73348383610c79565b50506001600355565b6000546001600160a01b03163314610ba65760405162461bcd60e51b81526004016103a59061158d565b60069390935560079190915560ff16600855600955565b6000546001600160a01b03163314610be75760405162461bcd60e51b81526004016103a59061158d565b6001600160a01b038116610c4c5760405162461bcd60e51b815260206004820152602660248201527f4f776e61626c653a206e6577206f776e657220697320746865207a65726f206160448201526564647265737360d01b60648201526084016103a5565b610a8881610fd0565b6000806000610c648585611020565b91509150610c7181611090565b509392505050565b600a5460ff161515600114610cda5760405162461bcd60e51b815260206004820152602160248201527f53616c6520726f756e64207761732064697361626c6564206f7220636c6f73656044820152601960fa1b60648201526084016103a5565b60008111610d345760405162461bcd60e51b815260206004820152602160248201527f5175616e746974792073686f756c642062652067726561746572207468616e206044820152600360fc1b60648201526084016103a5565b60095415610d9c57600954811115610d9c5760405162461bcd60e51b815260206004820152602560248201527f5175616e74697479206578636565646564206d617820616d6f756e7420706572604482015264081b5a5b9d60da1b60648201526084016103a5565b60075415610e0f57600754600c54610db59083906115c2565b1115610e0f5760405162461bcd60e51b8152602060048201526024808201527f4d617820616d6f756e7420776173207265616368656420666f7220746869732060448201526373616c6560e01b60648201526084016103a5565b60085415610e9a57600b546000908152600e602090815260408083206001600160a01b0386168452909152902054600854610e4a83836115c2565b1115610e985760405162461bcd60e51b815260206004820152601e60248201527f4d6178206d696e7465642070657220616464726573732072656163686564000060448201526064016103a5565b505b600654610ea89082906115da565b831015610eec5760405162461bcd60e51b8152602060048201526012602482015271496e73756666696369656e742066756e647360701b60448201526064016103a5565b600480546040516340c10f1960e01b81526001600160a01b0385811693820193909352602481018490529116906340c10f1990604401600060405180830381600087803b158015610f3c57600080fd5b505af1158015610f50573d6000803e3d6000fd5b5050505080600c6000828254610f6691906115c2565b9091555050600b546000908152600e602090815260408083206001600160a01b038616845290915281208054839290610fa09084906115c2565b9091555050600b546000908152600d602052604081208054839290610fc69084906115c2565b9091555050505050565b600080546001600160a01b038381166001600160a01b0319831681178455604051919092169283917f8be0079c531659141344cd1fd0a4f28419497f9722a3daafe3b4186f6b6457e09190a35050565b6000808251604114156110575760208301516040840151606085015160001a61104b87828585611291565b94509450505050611089565b825160401415611081576020830151604084015161107686838361137e565b935093505050611089565b506000905060025b9250929050565b60008160048111156110b257634e487b7160e01b600052602160045260246000fd5b14156110bb5750565b60018160048111156110dd57634e487b7160e01b600052602160045260246000fd5b141561112b5760405162461bcd60e51b815260206004820152601860248201527f45434453413a20696e76616c6964207369676e6174757265000000000000000060448201526064016103a5565b600281600481111561114d57634e487b7160e01b600052602160045260246000fd5b141561119b5760405162461bcd60e51b815260206004820152601f60248201527f45434453413a20696e76616c6964207369676e6174757265206c656e6774680060448201526064016103a5565b60038160048111156111bd57634e487b7160e01b600052602160045260246000fd5b14156112165760405162461bcd60e51b815260206004820152602260248201527f45434453413a20696e76616c6964207369676e6174757265202773272076616c604482015261756560f01b60648201526084016103a5565b600481600481111561123857634e487b7160e01b600052602160045260246000fd5b1415610a885760405162461bcd60e51b815260206004820152602260248201527f45434453413a20696e76616c6964207369676e6174757265202776272076616c604482015261756560f01b60648201526084016103a5565b6000807f7fffffffffffffffffffffffffffffff5d576e7357a4501ddfe92f46681b20a08311156112c85750600090506003611375565b8460ff16601b141580156112e057508460ff16601c14155b156112f15750600090506004611375565b6040805160008082526020820180845289905260ff881692820192909252606081018690526080810185905260019060a0016020604051602081039080840390855afa158015611345573d6000803e3d6000fd5b5050604051601f1901519150506001600160a01b03811661136e57600060019250925050611375565b9150600090505b94509492505050565b6000806001600160ff1b0383168161139b60ff86901c601b6115c2565b90506113a987828885611291565b935093505050935093915050565b80356001600160a01b03811681146113ce57600080fd5b919050565b6000602082840312156113e4578081fd5b6113ed826113b7565b9392505050565b60008060408385031215611406578081fd5b61140f836113b7565b946020939093013593505050565b60008060008060608587031215611432578182fd5b61143b856113b7565b935060208501359250604085013567ffffffffffffffff8082111561145e578384fd5b818701915087601f830112611471578384fd5b81358181111561147f578485fd5b886020828501011115611490578485fd5b95989497505060200194505050565b600080600080600060a086880312156114b6578081fd5b8535600281106114c4578182fd5b97602087013597506040870135966060810135965060800135945092505050565b6000602082840312156114f6578081fd5b5035919050565b60008060008060808587031215611512578384fd5b8435935060208501359250604085013560ff81168114611530578283fd5b9396929550929360600135925050565b60c081016002881061156257634e487b7160e01b600052602160045260246000fd5b9681526020810195909552604085019390935260608401919091526080830152151560a09091015290565b6020808252818101527f4f776e61626c653a2063616c6c6572206973206e6f7420746865206f776e6572604082015260600190565b600082198211156115d5576115d5611610565b500190565b60008160001904831182151516156115f4576115f4611610565b500290565b60008282101561160b5761160b611610565b500390565b634e487b7160e01b600052601160045260246000fdfea2646970667358221220fba8099312c776e94d17c36b8fecd37a64bf65e99b47393c2d413cd13af5739d64736f6c63430008040033",
    "linkReferences": {},
    "deployedLinkReferences": {}
}