{
    "_format": "hh-sol-artifact-1",
    "contractName": "NFT",
    "sourceName": "contracts/NFT.sol",
    "abi": [
        {
            "inputs": [
                {
                    "internalType": "string",
                    "name": "tokenName",
                    "type": "string"
                },
                {
                    "internalType": "string",
                    "name": "tokenSymbol",
                    "type": "string"
                },
                {
                    "internalType": "string",
                    "name": "customBaseURI",
                    "type": "string"
                },
                {
                    "internalType": "string",
                    "name": "notRevealedURI",
                    "type": "string"
                },
                {
                    "internalType": "uint256",
                    "name": "maxSupply",
                    "type": "uint256"
                },
                {
                    "internalType": "uint256",
                    "name": "maxReservedSupply",
                    "type": "uint256"
                }
            ],
            "stateMutability": "nonpayable",
            "type": "constructor"
        },
        {
            "inputs": [],
            "name": "ApprovalCallerNotOwnerNorApproved",
            "type": "error"
        },
        {
            "inputs": [],
            "name": "ApprovalQueryForNonexistentToken",
            "type": "error"
        },
        {
            "inputs": [],
            "name": "ApprovalToCurrentOwner",
            "type": "error"
        },
        {
            "inputs": [],
            "name": "ApproveToCaller",
            "type": "error"
        },
        {
            "inputs": [],
            "name": "BalanceQueryForZeroAddress",
            "type": "error"
        },
        {
            "inputs": [],
            "name": "MintToZeroAddress",
            "type": "error"
        },
        {
            "inputs": [],
            "name": "MintZeroQuantity",
            "type": "error"
        },
        {
            "inputs": [],
            "name": "OwnerQueryForNonexistentToken",
            "type": "error"
        },
        {
            "inputs": [],
            "name": "TransferCallerNotOwnerNorApproved",
            "type": "error"
        },
        {
            "inputs": [],
            "name": "TransferFromIncorrectOwner",
            "type": "error"
        },
        {
            "inputs": [],
            "name": "TransferToNonERC721ReceiverImplementer",
            "type": "error"
        },
        {
            "inputs": [],
            "name": "TransferToZeroAddress",
            "type": "error"
        },
        {
            "inputs": [],
            "name": "URIQueryForNonexistentToken",
            "type": "error"
        },
        {
            "anonymous": false,
            "inputs": [
                {
                    "indexed": true,
                    "internalType": "address",
                    "name": "owner",
                    "type": "address"
                },
                {
                    "indexed": true,
                    "internalType": "address",
                    "name": "approved",
                    "type": "address"
                },
                {
                    "indexed": true,
                    "internalType": "uint256",
                    "name": "tokenId",
                    "type": "uint256"
                }
            ],
            "name": "Approval",
            "type": "event"
        },
        {
            "anonymous": false,
            "inputs": [
                {
                    "indexed": true,
                    "internalType": "address",
                    "name": "owner",
                    "type": "address"
                },
                {
                    "indexed": true,
                    "internalType": "address",
                    "name": "operator",
                    "type": "address"
                },
                {
                    "indexed": false,
                    "internalType": "bool",
                    "name": "approved",
                    "type": "bool"
                }
            ],
            "name": "ApprovalForAll",
            "type": "event"
        },
        {
            "anonymous": false,
            "inputs": [
                {
                    "indexed": true,
                    "internalType": "bytes32",
                    "name": "role",
                    "type": "bytes32"
                },
                {
                    "indexed": true,
                    "internalType": "bytes32",
                    "name": "previousAdminRole",
                    "type": "bytes32"
                },
                {
                    "indexed": true,
                    "internalType": "bytes32",
                    "name": "newAdminRole",
                    "type": "bytes32"
                }
            ],
            "name": "RoleAdminChanged",
            "type": "event"
        },
        {
            "anonymous": false,
            "inputs": [
                {
                    "indexed": true,
                    "internalType": "bytes32",
                    "name": "role",
                    "type": "bytes32"
                },
                {
                    "indexed": true,
                    "internalType": "address",
                    "name": "account",
                    "type": "address"
                },
                {
                    "indexed": true,
                    "internalType": "address",
                    "name": "sender",
                    "type": "address"
                }
            ],
            "name": "RoleGranted",
            "type": "event"
        },
        {
            "anonymous": false,
            "inputs": [
                {
                    "indexed": true,
                    "internalType": "bytes32",
                    "name": "role",
                    "type": "bytes32"
                },
                {
                    "indexed": true,
                    "internalType": "address",
                    "name": "account",
                    "type": "address"
                },
                {
                    "indexed": true,
                    "internalType": "address",
                    "name": "sender",
                    "type": "address"
                }
            ],
            "name": "RoleRevoked",
            "type": "event"
        },
        {
            "anonymous": false,
            "inputs": [
                {
                    "indexed": true,
                    "internalType": "address",
                    "name": "from",
                    "type": "address"
                },
                {
                    "indexed": true,
                    "internalType": "address",
                    "name": "to",
                    "type": "address"
                },
                {
                    "indexed": true,
                    "internalType": "uint256",
                    "name": "tokenId",
                    "type": "uint256"
                }
            ],
            "name": "Transfer",
            "type": "event"
        },
        {
            "inputs": [],
            "name": "DEFAULT_ADMIN_ROLE",
            "outputs": [
                {
                    "internalType": "bytes32",
                    "name": "",
                    "type": "bytes32"
                }
            ],
            "stateMutability": "view",
            "type": "function"
        },
        {
            "inputs": [],
            "name": "MAX_RESERVED_SUPPLY",
            "outputs": [
                {
                    "internalType": "uint256",
                    "name": "",
                    "type": "uint256"
                }
            ],
            "stateMutability": "view",
            "type": "function"
        },
        {
            "inputs": [],
            "name": "MAX_SUPPLY",
            "outputs": [
                {
                    "internalType": "uint256",
                    "name": "",
                    "type": "uint256"
                }
            ],
            "stateMutability": "view",
            "type": "function"
        },
        {
            "inputs": [],
            "name": "MINTER_ROLE",
            "outputs": [
                {
                    "internalType": "bytes32",
                    "name": "",
                    "type": "bytes32"
                }
            ],
            "stateMutability": "view",
            "type": "function"
        },
        {
            "inputs": [
                {
                    "internalType": "address",
                    "name": "to",
                    "type": "address"
                },
                {
                    "internalType": "uint256",
                    "name": "tokenId",
                    "type": "uint256"
                }
            ],
            "name": "approve",
            "outputs": [],
            "stateMutability": "nonpayable",
            "type": "function"
        },
        {
            "inputs": [
                {
                    "internalType": "address",
                    "name": "owner",
                    "type": "address"
                }
            ],
            "name": "balanceOf",
            "outputs": [
                {
                    "internalType": "uint256",
                    "name": "",
                    "type": "uint256"
                }
            ],
            "stateMutability": "view",
            "type": "function"
        },
        {
            "inputs": [
                {
                    "internalType": "uint256",
                    "name": "tokenId",
                    "type": "uint256"
                }
            ],
            "name": "getApproved",
            "outputs": [
                {
                    "internalType": "address",
                    "name": "",
                    "type": "address"
                }
            ],
            "stateMutability": "view",
            "type": "function"
        },
        {
            "inputs": [
                {
                    "internalType": "bytes32",
                    "name": "role",
                    "type": "bytes32"
                }
            ],
            "name": "getRoleAdmin",
            "outputs": [
                {
                    "internalType": "bytes32",
                    "name": "",
                    "type": "bytes32"
                }
            ],
            "stateMutability": "view",
            "type": "function"
        },
        {
            "inputs": [
                {
                    "internalType": "bytes32",
                    "name": "role",
                    "type": "bytes32"
                },
                {
                    "internalType": "address",
                    "name": "account",
                    "type": "address"
                }
            ],
            "name": "grantRole",
            "outputs": [],
            "stateMutability": "nonpayable",
            "type": "function"
        },
        {
            "inputs": [
                {
                    "internalType": "bytes32",
                    "name": "role",
                    "type": "bytes32"
                },
                {
                    "internalType": "address",
                    "name": "account",
                    "type": "address"
                }
            ],
            "name": "hasRole",
            "outputs": [
                {
                    "internalType": "bool",
                    "name": "",
                    "type": "bool"
                }
            ],
            "stateMutability": "view",
            "type": "function"
        },
        {
            "inputs": [
                {
                    "internalType": "uint256",
                    "name": "quantity",
                    "type": "uint256"
                }
            ],
            "name": "increaseMaxSupply",
            "outputs": [],
            "stateMutability": "nonpayable",
            "type": "function"
        },
        {
            "inputs": [
                {
                    "internalType": "address",
                    "name": "owner",
                    "type": "address"
                },
                {
                    "internalType": "address",
                    "name": "operator",
                    "type": "address"
                }
            ],
            "name": "isApprovedForAll",
            "outputs": [
                {
                    "internalType": "bool",
                    "name": "",
                    "type": "bool"
                }
            ],
            "stateMutability": "view",
            "type": "function"
        },
        {
            "inputs": [
                {
                    "internalType": "address",
                    "name": "recipient",
                    "type": "address"
                },
                {
                    "internalType": "uint256",
                    "name": "quantity",
                    "type": "uint256"
                }
            ],
            "name": "mint",
            "outputs": [],
            "stateMutability": "nonpayable",
            "type": "function"
        },
        {
            "inputs": [],
            "name": "name",
            "outputs": [
                {
                    "internalType": "string",
                    "name": "",
                    "type": "string"
                }
            ],
            "stateMutability": "view",
            "type": "function"
        },
        {
            "inputs": [
                {
                    "internalType": "uint256",
                    "name": "tokenId",
                    "type": "uint256"
                }
            ],
            "name": "ownerOf",
            "outputs": [
                {
                    "internalType": "address",
                    "name": "",
                    "type": "address"
                }
            ],
            "stateMutability": "view",
            "type": "function"
        },
        {
            "inputs": [
                {
                    "internalType": "uint256",
                    "name": "quantity",
                    "type": "uint256"
                }
            ],
            "name": "premint",
            "outputs": [],
            "stateMutability": "nonpayable",
            "type": "function"
        },
        {
            "inputs": [],
            "name": "preminted",
            "outputs": [
                {
                    "internalType": "bool",
                    "name": "",
                    "type": "bool"
                }
            ],
            "stateMutability": "view",
            "type": "function"
        },
        {
            "inputs": [
                {
                    "internalType": "bytes32",
                    "name": "role",
                    "type": "bytes32"
                },
                {
                    "internalType": "address",
                    "name": "account",
                    "type": "address"
                }
            ],
            "name": "renounceRole",
            "outputs": [],
            "stateMutability": "nonpayable",
            "type": "function"
        },
        {
            "inputs": [],
            "name": "reveal",
            "outputs": [],
            "stateMutability": "nonpayable",
            "type": "function"
        },
        {
            "inputs": [],
            "name": "revealed",
            "outputs": [
                {
                    "internalType": "bool",
                    "name": "",
                    "type": "bool"
                }
            ],
            "stateMutability": "view",
            "type": "function"
        },
        {
            "inputs": [
                {
                    "internalType": "bytes32",
                    "name": "role",
                    "type": "bytes32"
                },
                {
                    "internalType": "address",
                    "name": "account",
                    "type": "address"
                }
            ],
            "name": "revokeRole",
            "outputs": [],
            "stateMutability": "nonpayable",
            "type": "function"
        },
        {
            "inputs": [
                {
                    "internalType": "address",
                    "name": "from",
                    "type": "address"
                },
                {
                    "internalType": "address",
                    "name": "to",
                    "type": "address"
                },
                {
                    "internalType": "uint256",
                    "name": "tokenId",
                    "type": "uint256"
                }
            ],
            "name": "safeTransferFrom",
            "outputs": [],
            "stateMutability": "nonpayable",
            "type": "function"
        },
        {
            "inputs": [
                {
                    "internalType": "address",
                    "name": "from",
                    "type": "address"
                },
                {
                    "internalType": "address",
                    "name": "to",
                    "type": "address"
                },
                {
                    "internalType": "uint256",
                    "name": "tokenId",
                    "type": "uint256"
                },
                {
                    "internalType": "bytes",
                    "name": "_data",
                    "type": "bytes"
                }
            ],
            "name": "safeTransferFrom",
            "outputs": [],
            "stateMutability": "nonpayable",
            "type": "function"
        },
        {
            "inputs": [
                {
                    "internalType": "address",
                    "name": "operator",
                    "type": "address"
                },
                {
                    "internalType": "bool",
                    "name": "approved",
                    "type": "bool"
                }
            ],
            "name": "setApprovalForAll",
            "outputs": [],
            "stateMutability": "nonpayable",
            "type": "function"
        },
        {
            "inputs": [
                {
                    "internalType": "string",
                    "name": "uri",
                    "type": "string"
                }
            ],
            "name": "setBaseUri",
            "outputs": [],
            "stateMutability": "nonpayable",
            "type": "function"
        },
        {
            "inputs": [
                {
                    "internalType": "address",
                    "name": "mintingRouter",
                    "type": "address"
                }
            ],
            "name": "setMinter",
            "outputs": [],
            "stateMutability": "nonpayable",
            "type": "function"
        },
        {
            "inputs": [
                {
                    "internalType": "string",
                    "name": "uri",
                    "type": "string"
                }
            ],
            "name": "setUnrevealedUri",
            "outputs": [],
            "stateMutability": "nonpayable",
            "type": "function"
        },
        {
            "inputs": [
                {
                    "internalType": "bytes4",
                    "name": "interfaceId",
                    "type": "bytes4"
                }
            ],
            "name": "supportsInterface",
            "outputs": [
                {
                    "internalType": "bool",
                    "name": "",
                    "type": "bool"
                }
            ],
            "stateMutability": "view",
            "type": "function"
        },
        {
            "inputs": [],
            "name": "symbol",
            "outputs": [
                {
                    "internalType": "string",
                    "name": "",
                    "type": "string"
                }
            ],
            "stateMutability": "view",
            "type": "function"
        },
        {
            "inputs": [
                {
                    "internalType": "uint256",
                    "name": "tokenId",
                    "type": "uint256"
                }
            ],
            "name": "tokenURI",
            "outputs": [
                {
                    "internalType": "string",
                    "name": "",
                    "type": "string"
                }
            ],
            "stateMutability": "view",
            "type": "function"
        },
        {
            "inputs": [],
            "name": "totalSupply",
            "outputs": [
                {
                    "internalType": "uint256",
                    "name": "",
                    "type": "uint256"
                }
            ],
            "stateMutability": "view",
            "type": "function"
        },
        {
            "inputs": [
                {
                    "internalType": "address",
                    "name": "from",
                    "type": "address"
                },
                {
                    "internalType": "address",
                    "name": "to",
                    "type": "address"
                },
                {
                    "internalType": "uint256",
                    "name": "tokenId",
                    "type": "uint256"
                }
            ],
            "name": "transferFrom",
            "outputs": [],
            "stateMutability": "nonpayable",
            "type": "function"
        },
        {
            "inputs": [],
            "name": "unreveal",
            "outputs": [],
            "stateMutability": "nonpayable",
            "type": "function"
        }
    ],
    "bytecode": "0x6080604052600b805460ff19908116909155600e805490911690553480156200002757600080fd5b50604051620022b5380380620022b58339810160408190526200004a91620002fa565b83838787816002908051906020019062000066929190620001a1565b5080516200007c906003906020840190620001a1565b505082516200009491506009906020850190620001a1565b508051620000aa90600a906020840190620001a1565b50620000bc91506000905033620000fc565b620000e87f9f2df0fed2c77648de5860a4cc508cd0818c85b8b8a1ab4ceeef8d981c8956a633620000fc565b600c91909155600d55506200041392505050565b60008281526008602090815260408083206001600160a01b038516845290915290205460ff166200019d5760008281526008602090815260408083206001600160a01b03851684529091529020805460ff191660011790556200015c3390565b6001600160a01b0316816001600160a01b0316837f2f8788117e7eff1d82e926ec794901d17c78024a50270940304540a733656f0d60405160405180910390a45b5050565b828054620001af90620003c0565b90600052602060002090601f016020900481019282620001d357600085556200021e565b82601f10620001ee57805160ff19168380011785556200021e565b828001600101855582156200021e579182015b828111156200021e57825182559160200191906001019062000201565b506200022c92915062000230565b5090565b5b808211156200022c576000815560010162000231565b600082601f83011262000258578081fd5b81516001600160401b0380821115620002755762000275620003fd565b604051601f8301601f19908116603f01168101908282118183101715620002a057620002a0620003fd565b81604052838152602092508683858801011115620002bc578485fd5b8491505b83821015620002df5785820183015181830184015290820190620002c0565b83821115620002f057848385830101525b9695505050505050565b60008060008060008060c0878903121562000313578182fd5b86516001600160401b03808211156200032a578384fd5b620003388a838b0162000247565b975060208901519150808211156200034e578384fd5b6200035c8a838b0162000247565b9650604089015191508082111562000372578384fd5b620003808a838b0162000247565b9550606089015191508082111562000396578384fd5b50620003a589828a0162000247565b9350506080870151915060a087015190509295509295509295565b600181811c90821680620003d557607f821691505b60208210811415620003f757634e487b7160e01b600052602260045260246000fd5b50919050565b634e487b7160e01b600052604160045260246000fd5b611e9280620004236000396000f3fe608060405234801561001057600080fd5b50600436106101fb5760003560e01c806370a082311161011a578063a22cb465116100ad578063d53913931161007c578063d539139314610416578063d547741f1461043d578063dfe0ce1814610450578063e985e9c514610459578063fca3b5aa1461049557600080fd5b8063a22cb465146103d5578063a475b5dd146103e8578063b88d4fde146103f0578063c87b56dd1461040357600080fd5b806395d89b41116100e957806395d89b411461039f5780639d5aef30146103a7578063a0bcfc7f146103ba578063a217fddf146103cd57600080fd5b806370a082311461035357806390edbfee1461036657806390fb5fb91461037957806391d148541461038c57600080fd5b80632f2ff15d1161019257806340c10f191161016157806340c10f191461030d57806342842e0e1461032057806351830227146103335780636352211e1461034057600080fd5b80632f2ff15d146102d157806332cb6b0c146102e4578063357b794e146102ed57806336568abe146102fa57600080fd5b8063158756b9116101ce578063158756b91461027d57806318160ddd1461028557806323b872dd1461029b578063248a9ca3146102ae57600080fd5b806301ffc9a71461020057806306fdde0314610228578063081812fc1461023d578063095ea7b314610268575b600080fd5b61021361020e366004611ac1565b6104a8565b60405190151581526020015b60405180910390f35b6102306104b9565b60405161021f9190611cdf565b61025061024b366004611a87565b61054b565b6040516001600160a01b03909116815260200161021f565b61027b610276366004611a5e565b61058f565b005b61027b61061d565b600154600054035b60405190815260200161021f565b61027b6102a9366004611970565b610636565b61028d6102bc366004611a87565b60009081526008602052604090206001015490565b61027b6102df366004611a9f565b610641565b61028d600c5481565b600e546102139060ff1681565b61027b610308366004611a9f565b610667565b61027b61031b366004611a5e565b6106ea565b61027b61032e366004611970565b6107d4565b600b546102139060ff1681565b61025061034e366004611a87565b6107ef565b61028d610361366004611924565b610801565b61027b610374366004611a87565b610850565b61027b610387366004611af9565b6108c7565b61021361039a366004611a9f565b6108e6565b610230610911565b61027b6103b5366004611a87565b610920565b61027b6103c8366004611af9565b610a3a565b61028d600081565b61027b6103e3366004611a24565b610a59565b61027b610aef565b61027b6103fe3660046119ab565b610b0b565b610230610411366004611a87565b610b45565b61028d7f9f2df0fed2c77648de5860a4cc508cd0818c85b8b8a1ab4ceeef8d981c8956a681565b61027b61044b366004611a9f565b610b76565b61028d600d5481565b61021361046736600461193e565b6001600160a01b03918216600090815260076020908152604080832093909416825291909152205460ff1690565b61027b6104a3366004611924565b610b9c565b60006104b382610bd2565b92915050565b6060600280546104c890611d97565b80601f01602080910402602001604051908101604052809291908181526020018280546104f490611d97565b80156105415780601f1061051657610100808354040283529160200191610541565b820191906000526020600020905b81548152906001019060200180831161052457829003601f168201915b5050505050905090565b600061055682610bf7565b610573576040516333d1c03960e21b815260040160405180910390fd5b506000908152600660205260409020546001600160a01b031690565b600061059a826107ef565b9050806001600160a01b0316836001600160a01b031614156105cf5760405163250fdee360e21b815260040160405180910390fd5b336001600160a01b038216148015906105ef57506105ed8133610467565b155b1561060d576040516367d9dca160e11b815260040160405180910390fd5b610618838383610c22565b505050565b60006106298133610c7e565b50600b805460ff19169055565b610618838383610ce2565b60008281526008602052604090206001015461065d8133610c7e565b6106188383610ef8565b6001600160a01b03811633146106dc5760405162461bcd60e51b815260206004820152602f60248201527f416363657373436f6e74726f6c3a2063616e206f6e6c792072656e6f756e636560448201526e103937b632b9903337b91039b2b63360891b60648201526084015b60405180910390fd5b6106e68282610f7e565b5050565b7f9f2df0fed2c77648de5860a4cc508cd0818c85b8b8a1ab4ceeef8d981c8956a66107158133610c7e565b600e5460ff16151560011461076c5760405162461bcd60e51b815260206004820152601e60248201527f5445414d5f524553455256455f4e4f545f5052454d494e5445445f594554000060448201526064016106d3565b600c548261077d6001546000540390565b6107879190611cf2565b11156107ca5760405162461bcd60e51b815260206004820152601260248201527145786365656473206d617820737570706c7960701b60448201526064016106d3565b6106188383610fe5565b61061883838360405180602001604052806000815250610b0b565b60006107fa82610fff565b5192915050565b60006001600160a01b03821661082a576040516323d3ad8160e21b815260040160405180910390fd5b506001600160a01b031660009081526005602052604090205467ffffffffffffffff1690565b600061085c8133610c7e565b600082116108ac5760405162461bcd60e51b815260206004820152601f60248201527f5175616e74697479206d7573742062652067726561746572207468616e20300060448201526064016106d3565b81600c60008282546108be9190611cf2565b90915550505050565b60006108d38133610c7e565b815161061890600a9060208501906117f9565b60009182526008602090815260408084206001600160a01b0393909316845291905290205460ff1690565b6060600380546104c890611d97565b600061092c8133610c7e565b600e5460ff161561098f5760405162461bcd60e51b815260206004820152602760248201527f416c6c20726573657276656420746f6b656e73207765726520616c7265616479604482015266081b5a5b9d195960ca1b60648201526084016106d3565b600d54826109a06001546000540390565b6109aa9190611cf2565b1115610a115760405162461bcd60e51b815260206004820152603060248201527f546f74616c206d696e74207175616e74697479206578636565646564204d415860448201526f5f52455345525645445f535550504c5960801b60648201526084016106d3565b610a1b3383610fe5565b600d5460015460005403600e80549190921460ff199091161790555050565b6000610a468133610c7e565b81516106189060099060208501906117f9565b6001600160a01b038216331415610a835760405163b06307db60e01b815260040160405180910390fd5b3360008181526007602090815260408083206001600160a01b03871680855290835292819020805460ff191686151590811790915590519081529192917f17307eab39ab6107e8899845ad3d59bd9653f200f220920489ca2b5937696c31910160405180910390a35050565b6000610afb8133610c7e565b50600b805460ff19166001179055565b610b16848484610ce2565b610b228484848461111a565b610b3f576040516368d2bf6b60e11b815260040160405180910390fd5b50505050565b6060610b5082610bf7565b610b6d57604051630a14c4b560e41b815260040160405180910390fd5b6104b382611229565b600082815260086020526040902060010154610b928133610c7e565b6106188383610f7e565b6000610ba88133610c7e565b6106e67f9f2df0fed2c77648de5860a4cc508cd0818c85b8b8a1ab4ceeef8d981c8956a683611323565b60006001600160e01b03198216637965db0b60e01b14806104b357506104b38261132d565b60008054821080156104b3575050600090815260046020526040902054600160e01b900460ff161590565b60008281526006602052604080822080546001600160a01b0319166001600160a01b0387811691821790925591518593918516917f8c5be1e5ebec7d5bd14f71427d1e84f3dd0314c0f7b2291e5b200ac8c7c3b92591a4505050565b610c8882826108e6565b6106e657610ca0816001600160a01b0316601461137d565b610cab83602061137d565b604051602001610cbc929190611c2d565b60408051601f198184030181529082905262461bcd60e51b82526106d391600401611cdf565b6000610ced82610fff565b80519091506000906001600160a01b0316336001600160a01b03161480610d1b57508151610d1b9033610467565b80610d36575033610d2b8461054b565b6001600160a01b0316145b905080610d5657604051632ce44b5f60e11b815260040160405180910390fd5b846001600160a01b031682600001516001600160a01b031614610d8b5760405162a1148160e81b815260040160405180910390fd5b6001600160a01b038416610db257604051633a954ecd60e21b815260040160405180910390fd5b610dc26000848460000151610c22565b6001600160a01b038581166000908152600560209081526040808320805467ffffffffffffffff1980821667ffffffffffffffff92831660001901831617909255898616808652838620805493841693831660019081018416949094179055898652600490945282852080546001600160e01b031916909417600160a01b429092169190910217909255908601808352912054909116610eae57600054811015610eae578251600082815260046020908152604090912080549186015167ffffffffffffffff16600160a01b026001600160e01b03199092166001600160a01b03909316929092171790555b5082846001600160a01b0316866001600160a01b03167fddf252ad1be2c89b69c2b068fc378daa952ba7f163c4a11628f55a4df523b3ef60405160405180910390a45b5050505050565b610f0282826108e6565b6106e65760008281526008602090815260408083206001600160a01b03851684529091529020805460ff19166001179055610f3a3390565b6001600160a01b0316816001600160a01b0316837f2f8788117e7eff1d82e926ec794901d17c78024a50270940304540a733656f0d60405160405180910390a45050565b610f8882826108e6565b156106e65760008281526008602090815260408083206001600160a01b0385168085529252808320805460ff1916905551339285917ff6391f5c32d9c69d2a47ea670b442974b53935d1edc7fd64eb21e047a839171b9190a45050565b6106e6828260405180602001604052806000815250611566565b604080516060810182526000808252602082018190529181018290529054829081101561110157600081815260046020908152604091829020825160608101845290546001600160a01b0381168252600160a01b810467ffffffffffffffff1692820192909252600160e01b90910460ff161515918101829052906110ff5780516001600160a01b031615611095579392505050565b5060001901600081815260046020908152604091829020825160608101845290546001600160a01b038116808352600160a01b820467ffffffffffffffff1693830193909352600160e01b900460ff16151592810192909252156110fa579392505050565b611095565b505b604051636f96cda160e11b815260040160405180910390fd5b60006001600160a01b0384163b1561121d57604051630a85bd0160e11b81526001600160a01b0385169063150b7a029061115e903390899088908890600401611ca2565b602060405180830381600087803b15801561117857600080fd5b505af19250505080156111a8575060408051601f3d908101601f191682019092526111a591810190611add565b60015b611203573d8080156111d6576040519150601f19603f3d011682016040523d82523d6000602084013e6111db565b606091505b5080516111fb576040516368d2bf6b60e11b815260040160405180910390fd5b805181602001fd5b6001600160e01b031916630a85bd0160e11b149050611221565b5060015b949350505050565b600b5460609060ff166112c857600a805461124390611d97565b80601f016020809104026020016040519081016040528092919081815260200182805461126f90611d97565b80156112bc5780601f10611291576101008083540402835291602001916112bc565b820191906000526020600020905b81548152906001019060200180831161129f57829003601f168201915b50505050509050919050565b600980546112d590611d97565b151590506112f257604051806020016040528060008152506104b3565b60096112fd83611573565b60405160200161130e929190611b87565b60405160208183030381529060405292915050565b6106e68282610ef8565b60006001600160e01b031982166380ac58cd60e01b148061135e57506001600160e01b03198216635b5e139f60e01b145b806104b357506301ffc9a760e01b6001600160e01b03198316146104b3565b6060600061138c836002611d1e565b611397906002611cf2565b67ffffffffffffffff8111156113bd57634e487b7160e01b600052604160045260246000fd5b6040519080825280601f01601f1916602001820160405280156113e7576020820181803683370190505b509050600360fc1b8160008151811061141057634e487b7160e01b600052603260045260246000fd5b60200101906001600160f81b031916908160001a905350600f60fb1b8160018151811061144d57634e487b7160e01b600052603260045260246000fd5b60200101906001600160f81b031916908160001a9053506000611471846002611d1e565b61147c906001611cf2565b90505b6001811115611510576f181899199a1a9b1b9c1cb0b131b232b360811b85600f16601081106114be57634e487b7160e01b600052603260045260246000fd5b1a60f81b8282815181106114e257634e487b7160e01b600052603260045260246000fd5b60200101906001600160f81b031916908160001a90535060049490941c9361150981611d80565b905061147f565b50831561155f5760405162461bcd60e51b815260206004820181905260248201527f537472696e67733a20686578206c656e67746820696e73756666696369656e7460448201526064016106d3565b9392505050565b610618838383600161168d565b6060816115975750506040805180820190915260018152600360fc1b602082015290565b8160005b81156115c157806115ab81611dd2565b91506115ba9050600a83611d0a565b915061159b565b60008167ffffffffffffffff8111156115ea57634e487b7160e01b600052604160045260246000fd5b6040519080825280601f01601f191660200182016040528015611614576020820181803683370190505b5090505b841561122157611629600183611d3d565b9150611636600a86611ded565b611641906030611cf2565b60f81b81838151811061166457634e487b7160e01b600052603260045260246000fd5b60200101906001600160f81b031916908160001a905350611686600a86611d0a565b9450611618565b6000546001600160a01b0385166116b657604051622e076360e81b815260040160405180910390fd5b836116d45760405163b562e8dd60e01b815260040160405180910390fd5b6001600160a01b038516600081815260056020908152604080832080546fffffffffffffffffffffffffffffffff19811667ffffffffffffffff8083168c0181169182176801000000000000000067ffffffffffffffff1990941690921783900481168c018116909202179091558584526004909252822080546001600160e01b031916909317600160a01b42909216919091021790915581905b858110156117f05760405182906001600160a01b038916906000907fddf252ad1be2c89b69c2b068fc378daa952ba7f163c4a11628f55a4df523b3ef908290a48380156117c657506117c4600088848861111a565b155b156117e4576040516368d2bf6b60e11b815260040160405180910390fd5b6001918201910161176f565b50600055610ef1565b82805461180590611d97565b90600052602060002090601f016020900481019282611827576000855561186d565b82601f1061184057805160ff191683800117855561186d565b8280016001018555821561186d579182015b8281111561186d578251825591602001919060010190611852565b5061187992915061187d565b5090565b5b80821115611879576000815560010161187e565b600067ffffffffffffffff808411156118ad576118ad611e2d565b604051601f8501601f19908116603f011681019082821181831017156118d5576118d5611e2d565b816040528093508581528686860111156118ee57600080fd5b858560208301376000602087830101525050509392505050565b80356001600160a01b038116811461191f57600080fd5b919050565b600060208284031215611935578081fd5b61155f82611908565b60008060408385031215611950578081fd5b61195983611908565b915061196760208401611908565b90509250929050565b600080600060608486031215611984578081fd5b61198d84611908565b925061199b60208501611908565b9150604084013590509250925092565b600080600080608085870312156119c0578081fd5b6119c985611908565b93506119d760208601611908565b925060408501359150606085013567ffffffffffffffff8111156119f9578182fd5b8501601f81018713611a09578182fd5b611a1887823560208401611892565b91505092959194509250565b60008060408385031215611a36578182fd5b611a3f83611908565b915060208301358015158114611a53578182fd5b809150509250929050565b60008060408385031215611a70578182fd5b611a7983611908565b946020939093013593505050565b600060208284031215611a98578081fd5b5035919050565b60008060408385031215611ab1578182fd5b8235915061196760208401611908565b600060208284031215611ad2578081fd5b813561155f81611e43565b600060208284031215611aee578081fd5b815161155f81611e43565b600060208284031215611b0a578081fd5b813567ffffffffffffffff811115611b20578182fd5b8201601f81018413611b30578182fd5b61122184823560208401611892565b60008151808452611b57816020860160208601611d54565b601f01601f19169290920160200192915050565b60008151611b7d818560208601611d54565b9290920192915050565b600080845482600182811c915080831680611ba357607f831692505b6020808410821415611bc357634e487b7160e01b87526022600452602487fd5b818015611bd75760018114611be857611c14565b60ff19861689528489019650611c14565b60008b815260209020885b86811015611c0c5781548b820152908501908301611bf3565b505084890196505b505050505050611c248185611b6b565b95945050505050565b7f416363657373436f6e74726f6c3a206163636f756e7420000000000000000000815260008351611c65816017850160208801611d54565b7001034b99036b4b9b9b4b733903937b6329607d1b6017918401918201528351611c96816028840160208801611d54565b01602801949350505050565b6001600160a01b0385811682528416602082015260408101839052608060608201819052600090611cd590830184611b3f565b9695505050505050565b60208152600061155f6020830184611b3f565b60008219821115611d0557611d05611e01565b500190565b600082611d1957611d19611e17565b500490565b6000816000190483118215151615611d3857611d38611e01565b500290565b600082821015611d4f57611d4f611e01565b500390565b60005b83811015611d6f578181015183820152602001611d57565b83811115610b3f5750506000910152565b600081611d8f57611d8f611e01565b506000190190565b600181811c90821680611dab57607f821691505b60208210811415611dcc57634e487b7160e01b600052602260045260246000fd5b50919050565b6000600019821415611de657611de6611e01565b5060010190565b600082611dfc57611dfc611e17565b500690565b634e487b7160e01b600052601160045260246000fd5b634e487b7160e01b600052601260045260246000fd5b634e487b7160e01b600052604160045260246000fd5b6001600160e01b031981168114611e5957600080fd5b5056fea264697066735822122020b601e711e168964d5062f0b4eac9e9574e622a1d4cdd225f5e298ba3e7722264736f6c63430008040033",
    "linkReferences": {},
    "deployedLinkReferences": {}
}